{
  "contractName": "hcsc",
  "abi": [
    {
      "inputs": [
        {
          "internalType": "uint256",
          "name": "numberOfProducts",
          "type": "uint256"
        }
      ],
      "stateMutability": "nonpayable",
      "type": "constructor"
    },
    {
      "inputs": [
        {
          "internalType": "address",
          "name": "",
          "type": "address"
        }
      ],
      "name": "availableProducts",
      "outputs": [
        {
          "internalType": "uint256",
          "name": "pid",
          "type": "uint256"
        },
        {
          "internalType": "uint256",
          "name": "pcount",
          "type": "uint256"
        },
        {
          "internalType": "uint256",
          "name": "pamount",
          "type": "uint256"
        }
      ],
      "stateMutability": "view",
      "type": "function"
    },
    {
      "inputs": [
        {
          "internalType": "uint256",
          "name": "",
          "type": "uint256"
        }
      ],
      "name": "products",
      "outputs": [
        {
          "internalType": "uint256",
          "name": "pid",
          "type": "uint256"
        },
        {
          "internalType": "uint256",
          "name": "pcount",
          "type": "uint256"
        },
        {
          "internalType": "uint256",
          "name": "pamount",
          "type": "uint256"
        }
      ],
      "stateMutability": "view",
      "type": "function"
    },
    {
      "inputs": [],
      "name": "state",
      "outputs": [
        {
          "internalType": "enum hcsc.Phase",
          "name": "",
          "type": "uint8"
        }
      ],
      "stateMutability": "view",
      "type": "function"
    }
  ],
  "bytecode": "0x60806040526000600460006101000a81548160ff0219169083600281111561002a57610029610123565b5b021790555034801561003b57600080fd5b506040516105b03803806105b0833981810160405281019061005d919061018d565b33600160006101000a81548173ffffffffffffffffffffffffffffffffffffffff021916908373ffffffffffffffffffffffffffffffffffffffff16021790555060005b8181101561011c576040518060600160405280828152602001600081526020016000815250600082815481106100da576100d96101ba565b5b9060005260206000209060030201600082015181600001556020820151816001015560408201518160020155905050808061011490610218565b9150506100a1565b5050610261565b7f4e487b7100000000000000000000000000000000000000000000000000000000600052602160045260246000fd5b600080fd5b6000819050919050565b61016a81610157565b811461017557600080fd5b50565b60008151905061018781610161565b92915050565b6000602082840312156101a3576101a2610152565b5b60006101b184828501610178565b91505092915050565b7f4e487b7100000000000000000000000000000000000000000000000000000000600052603260045260246000fd5b7f4e487b7100000000000000000000000000000000000000000000000000000000600052601160045260246000fd5b600061022382610157565b91507fffffffffffffffffffffffffffffffffffffffffffffffffffffffffffffffff821415610256576102556101e9565b5b600182019050919050565b610340806102706000396000f3fe608060405234801561001057600080fd5b50600436106100415760003560e01c80637acc0b2014610046578063c19d93fb14610078578063ca4ab70d14610096575b600080fd5b610060600480360381019061005b919061017a565b6100c8565b60405161006f939291906101b6565b60405180910390f35b610080610102565b60405161008d9190610264565b60405180910390f35b6100b060048036038101906100ab91906102dd565b610115565b6040516100bf939291906101b6565b60405180910390f35b600081815481106100d857600080fd5b90600052602060002090600302016000915090508060000154908060010154908060020154905083565b600460009054906101000a900460ff1681565b60036020528060005260406000206000915090508060000154908060010154908060020154905083565b600080fd5b6000819050919050565b61015781610144565b811461016257600080fd5b50565b6000813590506101748161014e565b92915050565b6000602082840312156101905761018f61013f565b5b600061019e84828501610165565b91505092915050565b6101b081610144565b82525050565b60006060820190506101cb60008301866101a7565b6101d860208301856101a7565b6101e560408301846101a7565b949350505050565b7f4e487b7100000000000000000000000000000000000000000000000000000000600052602160045260246000fd5b6003811061022d5761022c6101ed565b5b50565b600081905061023e8261021c565b919050565b600061024e82610230565b9050919050565b61025e81610243565b82525050565b60006020820190506102796000830184610255565b92915050565b600073ffffffffffffffffffffffffffffffffffffffff82169050919050565b60006102aa8261027f565b9050919050565b6102ba8161029f565b81146102c557600080fd5b50565b6000813590506102d7816102b1565b92915050565b6000602082840312156102f3576102f261013f565b5b6000610301848285016102c8565b9150509291505056fea2646970667358221220a0c909717e810062b0efb52e0456c8a1f87a86150e0de7aacf8aed7ed7aa63b464736f6c634300080c0033",
  "immutableReferences": {},
  "source": "\n// SPDX-License-Identifier: GPL-3.0\n\npragma solidity >=0.4.22 <0.9.0;\n\ncontract hcsc{\n    \n    struct healthcareProvider{\n        uint hcpID;\n    }\n\n    struct product {\n        uint pid;\n        uint pcount;\n        uint pamount;\n    }\n\n     product[] public products;\n\n    address chairperson;\n    mapping (address => healthcareProvider) hcp;\n    mapping (address => product) public availableProducts;\n\n    enum Phase {Init, inStock, out_of_stock}\n    Phase public state = Phase.Init;\n\n    constructor(uint numberOfProducts) public {\n        chairperson = msg.sender;\n        for (uint i = 0; i < numberOfProducts; i++){\n            products[i] = product(i, 0, 0);\n        }\n    }\n}",
  "sourcePath": "/home/shreyans/UB/Blockchain/projects/ethology-contract/contracts/Ethology.sol",
  "compiler": {
    "name": "solc",
    "version": "0.8.12+commit.f00d7308.Emscripten.clang"
  },
  "schemaVersion": "3.4.6",
  "updatedAt": "2022-04-13T18:46:22.722Z",
  "devdoc": {
    "kind": "dev",
    "methods": {},
    "version": 1
  },
  "userdoc": {
    "kind": "user",
    "methods": {},
    "version": 1
  }
}