{
  "contractName": "Ethology",
  "abi": [
    {
      "inputs": [],
      "stateMutability": "nonpayable",
      "type": "constructor"
    },
    {
      "inputs": [],
      "name": "getSupplier",
      "outputs": [
        {
          "internalType": "address",
          "name": "",
          "type": "address"
        }
      ],
      "stateMutability": "view",
      "type": "function",
      "constant": true
    },
    {
      "inputs": [],
      "name": "getBuyer",
      "outputs": [
        {
          "internalType": "address",
          "name": "",
          "type": "address"
        }
      ],
      "stateMutability": "view",
      "type": "function",
      "constant": true
    },
    {
      "inputs": [],
      "name": "getPoIdList",
      "outputs": [
        {
          "internalType": "uint256[]",
          "name": "",
          "type": "uint256[]"
        }
      ],
      "stateMutability": "view",
      "type": "function",
      "constant": true
    },
    {
      "inputs": [],
      "name": "getPoPriceList",
      "outputs": [
        {
          "internalType": "uint256[]",
          "name": "",
          "type": "uint256[]"
        }
      ],
      "stateMutability": "view",
      "type": "function",
      "constant": true
    },
    {
      "inputs": [],
      "name": "getPoSupplierStatusList",
      "outputs": [
        {
          "internalType": "enum Ethology.supplierPhase[]",
          "name": "",
          "type": "uint8[]"
        }
      ],
      "stateMutability": "view",
      "type": "function",
      "constant": true
    },
    {
      "inputs": [],
      "name": "getPoBuyerStatusList",
      "outputs": [
        {
          "internalType": "enum Ethology.buyerPhase[]",
          "name": "",
          "type": "uint8[]"
        }
      ],
      "stateMutability": "view",
      "type": "function",
      "constant": true
    },
    {
      "inputs": [],
      "name": "getPoBuyerAddressList",
      "outputs": [
        {
          "internalType": "address[]",
          "name": "",
          "type": "address[]"
        }
      ],
      "stateMutability": "view",
      "type": "function",
      "constant": true
    },
    {
      "inputs": [],
      "name": "getPOList",
      "outputs": [
        {
          "components": [
            {
              "internalType": "enum Ethology.buyerPhase",
              "name": "buyerStatus",
              "type": "uint8"
            },
            {
              "internalType": "enum Ethology.supplierPhase",
              "name": "supplierStatus",
              "type": "uint8"
            },
            {
              "internalType": "uint256",
              "name": "price",
              "type": "uint256"
            },
            {
              "internalType": "uint256",
              "name": "id",
              "type": "uint256"
            }
          ],
          "internalType": "struct Ethology.purchaseOrder[]",
          "name": "",
          "type": "tuple[]"
        }
      ],
      "stateMutability": "view",
      "type": "function",
      "constant": true
    },
    {
      "inputs": [
        {
          "internalType": "address",
          "name": "addr",
          "type": "address"
        }
      ],
      "name": "getBuyerIndex",
      "outputs": [
        {
          "internalType": "uint256",
          "name": "",
          "type": "uint256"
        }
      ],
      "stateMutability": "view",
      "type": "function",
      "constant": true
    },
    {
      "inputs": [],
      "name": "getBuyerCount",
      "outputs": [
        {
          "internalType": "uint256",
          "name": "",
          "type": "uint256"
        }
      ],
      "stateMutability": "view",
      "type": "function",
      "constant": true
    },
    {
      "inputs": [
        {
          "internalType": "uint256",
          "name": "id",
          "type": "uint256"
        }
      ],
      "name": "isPoAlreadyRaised",
      "outputs": [
        {
          "internalType": "bool",
          "name": "",
          "type": "bool"
        }
      ],
      "stateMutability": "view",
      "type": "function",
      "constant": true
    },
    {
      "inputs": [
        {
          "internalType": "uint256",
          "name": "id",
          "type": "uint256"
        },
        {
          "internalType": "uint256",
          "name": "price",
          "type": "uint256"
        }
      ],
      "name": "raisePO",
      "outputs": [],
      "stateMutability": "nonpayable",
      "type": "function"
    },
    {
      "inputs": [
        {
          "internalType": "enum Ethology.supplierPhase",
          "name": "phase",
          "type": "uint8"
        }
      ],
      "name": "updateSupplierPhase",
      "outputs": [],
      "stateMutability": "nonpayable",
      "type": "function"
    },
    {
      "inputs": [
        {
          "internalType": "enum Ethology.buyerPhase",
          "name": "phase",
          "type": "uint8"
        }
      ],
      "name": "updateBuyerPhase",
      "outputs": [],
      "stateMutability": "nonpayable",
      "type": "function"
    },
    {
      "inputs": [
        {
          "internalType": "uint256",
          "name": "id",
          "type": "uint256"
        },
        {
          "internalType": "uint256",
          "name": "price",
          "type": "uint256"
        }
      ],
      "name": "RaisePo",
      "outputs": [],
      "stateMutability": "nonpayable",
      "type": "function"
    }
  ],
  "bytecode": "0x6080604052600060075534801561001557600080fd5b5033600660006101000a81548173ffffffffffffffffffffffffffffffffffffffff021916908373ffffffffffffffffffffffffffffffffffffffff160217905550611852806100666000396000f3fe608060405234801561001057600080fd5b50600436106100f55760003560e01c806393084a2a11610097578063d2ce250711610066578063d2ce250714610264578063dc28f69714610282578063de7513db1461029e578063e533ea74146102ba576100f5565b806393084a2a146101da578063bf068baa146101f8578063cf35f41e14610228578063cfb4639914610246576100f5565b806343165002116100d357806343165002146101645780635fdbb48a14610182578063603daf9a1461019e57806392708550146101bc576100f5565b806316bf5760146100fa5780631e36b44d1461011657806323300ca414610146575b600080fd5b610114600480360381019061010f9190610dd8565b6102d8565b005b610130600480360381019061012b9190610e76565b610531565b60405161013d9190610eb2565b60405180910390f35b61014e6105e7565b60405161015b9190610edc565b60405180910390f35b61016c610611565b6040516101799190610fb5565b60405180910390f35b61019c60048036038101906101979190610ffc565b610669565b005b6101a66107a8565b6040516101b39190610edc565b60405180910390f35b6101c46107b0565b6040516101d191906110e7565b60405180910390f35b6101e261083e565b6040516101ef9190610eb2565b60405180910390f35b610212600480360381019061020d9190611109565b610848565b60405161021f9190611151565b60405180910390f35b61023061089e565b60405161023d919061132f565b60405180910390f35b61024e6109c3565b60405161025b9190611400565b60405180910390f35b61026c610a50565b60405161027991906114c0565b60405180910390f35b61029c60048036038101906102979190611507565b610add565b005b6102b860048036038101906102b39190610dd8565b610c1d565b005b6102c2610d45565b6040516102cf9190610fb5565b60405180910390f35b600660009054906101000a900473ffffffffffffffffffffffffffffffffffffffff1673ffffffffffffffffffffffffffffffffffffffff163373ffffffffffffffffffffffffffffffffffffffff161415610369576040517f08c379a0000000000000000000000000000000000000000000000000000000008152600401610360906115b7565b60405180910390fd5b61037282610848565b6104f2576005339080600181540180825580915050600190039060005260206000200160009091909190916101000a81548173ffffffffffffffffffffffffffffffffffffffff021916908373ffffffffffffffffffffffffffffffffffffffff160217905550600182908060018154018082558091505060019003906000526020600020016000909190919091505560028190806001815401808255809150506001900390600052602060002001600090919091909150556004600090806001815401808255809150506001900390600052602060002090602091828204019190069091909190916101000a81548160ff0219169083600281111561047b5761047a611198565b5b02179055506003600090806001815401808255809150506001900390600052602060002090602091828204019190069091909190916101000a81548160ff021916908360038111156104d0576104cf611198565b5b0217905550600760008154809291906104e890611606565b919050555061052d565b6040517f08c379a00000000000000000000000000000000000000000000000000000000081526004016105249061169b565b60405180910390fd5b5050565b600080600190505b60075481116105dc57600560018261055191906116bb565b81548110610562576105616116ef565b5b9060005260206000200160009054906101000a900473ffffffffffffffffffffffffffffffffffffffff1673ffffffffffffffffffffffffffffffffffffffff168373ffffffffffffffffffffffffffffffffffffffff1614156105c957809150506105e2565b80806105d490611606565b915050610539565b50600090505b919050565b6000600660009054906101000a900473ffffffffffffffffffffffffffffffffffffffff16905090565b6060600280548060200260200160405190810160405280929190818152602001828054801561065f57602002820191906000526020600020905b81548152602001906001019080831161064b575b5050505050905090565b600660009054906101000a900473ffffffffffffffffffffffffffffffffffffffff1673ffffffffffffffffffffffffffffffffffffffff163373ffffffffffffffffffffffffffffffffffffffff16146106f9576040517f08c379a00000000000000000000000000000000000000000000000000000000081526004016106f090611790565b60405180910390fd5b600061070433610531565b9050600081141561074a576040517f08c379a0000000000000000000000000000000000000000000000000000000008152600401610741906117fc565b60405180910390fd5b81600360018361075a91906116bb565b8154811061076b5761076a6116ef565b5b90600052602060002090602091828204019190066101000a81548160ff0219169083600381111561079f5761079e611198565b5b02179055505050565b600033905090565b6060600580548060200260200160405190810160405280929190818152602001828054801561083457602002820191906000526020600020905b8160009054906101000a900473ffffffffffffffffffffffffffffffffffffffff1673ffffffffffffffffffffffffffffffffffffffff16815260200190600101908083116107ea575b5050505050905090565b6000600754905090565b60008061085433610531565b90506000811415610869576000915050610899565b826001808361087891906116bb565b81548110610889576108886116ef565b5b9060005260206000200154149150505b919050565b60606000803373ffffffffffffffffffffffffffffffffffffffff1673ffffffffffffffffffffffffffffffffffffffff168152602001908152602001600020805480602002602001604051908101604052809291908181526020016000905b828210156109ba57838290600052602060002090600302016040518060800160405290816000820160009054906101000a900460ff16600281111561094657610945611198565b5b600281111561095857610957611198565b5b81526020016000820160019054906101000a900460ff16600381111561098157610980611198565b5b600381111561099357610992611198565b5b815260200160018201548152602001600282015481525050815260200190600101906108fe565b50505050905090565b60606004805480602002602001604051908101604052809291908181526020018280548015610a4657602002820191906000526020600020906000905b82829054906101000a900460ff166002811115610a2057610a1f611198565b5b81526020019060010190602082600001049283019260010382029150808411610a005790505b5050505050905090565b60606003805480602002602001604051908101604052809291908181526020018280548015610ad357602002820191906000526020600020906000905b82829054906101000a900460ff166003811115610aad57610aac611198565b5b81526020019060010190602082600001049283019260010382029150808411610a8d5790505b5050505050905090565b600660009054906101000a900473ffffffffffffffffffffffffffffffffffffffff1673ffffffffffffffffffffffffffffffffffffffff163373ffffffffffffffffffffffffffffffffffffffff161415610b6e576040517f08c379a0000000000000000000000000000000000000000000000000000000008152600401610b65906115b7565b60405180910390fd5b6000610b7933610531565b90506000811415610bbf576040517f08c379a0000000000000000000000000000000000000000000000000000000008152600401610bb6906117fc565b60405180910390fd5b816004600183610bcf91906116bb565b81548110610be057610bdf6116ef565b5b90600052602060002090602091828204019190066101000a81548160ff02191690836002811115610c1457610c13611198565b5b02179055505050565b6000803373ffffffffffffffffffffffffffffffffffffffff1673ffffffffffffffffffffffffffffffffffffffff168152602001908152602001600020604051806080016040528060006002811115610c7a57610c79611198565b5b815260200160006003811115610c9357610c92611198565b5b815260200183815260200184815250908060018154018082558091505060019003906000526020600020906003020160009091909190915060008201518160000160006101000a81548160ff02191690836002811115610cf657610cf5611198565b5b021790555060208201518160000160016101000a81548160ff02191690836003811115610d2657610d25611198565b5b0217905550604082015181600101556060820151816002015550505050565b60606001805480602002602001604051908101604052809291908181526020018280548015610d9357602002820191906000526020600020905b815481526020019060010190808311610d7f575b5050505050905090565b600080fd5b6000819050919050565b610db581610da2565b8114610dc057600080fd5b50565b600081359050610dd281610dac565b92915050565b60008060408385031215610def57610dee610d9d565b5b6000610dfd85828601610dc3565b9250506020610e0e85828601610dc3565b9150509250929050565b600073ffffffffffffffffffffffffffffffffffffffff82169050919050565b6000610e4382610e18565b9050919050565b610e5381610e38565b8114610e5e57600080fd5b50565b600081359050610e7081610e4a565b92915050565b600060208284031215610e8c57610e8b610d9d565b5b6000610e9a84828501610e61565b91505092915050565b610eac81610da2565b82525050565b6000602082019050610ec76000830184610ea3565b92915050565b610ed681610e38565b82525050565b6000602082019050610ef16000830184610ecd565b92915050565b600081519050919050565b600082825260208201905092915050565b6000819050602082019050919050565b610f2c81610da2565b82525050565b6000610f3e8383610f23565b60208301905092915050565b6000602082019050919050565b6000610f6282610ef7565b610f6c8185610f02565b9350610f7783610f13565b8060005b83811015610fa8578151610f8f8882610f32565b9750610f9a83610f4a565b925050600181019050610f7b565b5085935050505092915050565b60006020820190508181036000830152610fcf8184610f57565b905092915050565b60048110610fe457600080fd5b50565b600081359050610ff681610fd7565b92915050565b60006020828403121561101257611011610d9d565b5b600061102084828501610fe7565b91505092915050565b600081519050919050565b600082825260208201905092915050565b6000819050602082019050919050565b61105e81610e38565b82525050565b60006110708383611055565b60208301905092915050565b6000602082019050919050565b600061109482611029565b61109e8185611034565b93506110a983611045565b8060005b838110156110da5781516110c18882611064565b97506110cc8361107c565b9250506001810190506110ad565b5085935050505092915050565b600060208201905081810360008301526111018184611089565b905092915050565b60006020828403121561111f5761111e610d9d565b5b600061112d84828501610dc3565b91505092915050565b60008115159050919050565b61114b81611136565b82525050565b60006020820190506111666000830184611142565b92915050565b600081519050919050565b600082825260208201905092915050565b6000819050602082019050919050565b7f4e487b7100000000000000000000000000000000000000000000000000000000600052602160045260246000fd5b600381106111d8576111d7611198565b5b50565b60008190506111e9826111c7565b919050565b60006111f9826111db565b9050919050565b611209816111ee565b82525050565b600481106112205761121f611198565b5b50565b60008190506112318261120f565b919050565b600061124182611223565b9050919050565b61125181611236565b82525050565b60808201600082015161126d6000850182611200565b5060208201516112806020850182611248565b5060408201516112936040850182610f23565b5060608201516112a66060850182610f23565b50505050565b60006112b88383611257565b60808301905092915050565b6000602082019050919050565b60006112dc8261116c565b6112e68185611177565b93506112f183611188565b8060005b8381101561132257815161130988826112ac565b9750611314836112c4565b9250506001810190506112f5565b5085935050505092915050565b6000602082019050818103600083015261134981846112d1565b905092915050565b600081519050919050565b600082825260208201905092915050565b6000819050602082019050919050565b60006113898383611200565b60208301905092915050565b6000602082019050919050565b60006113ad82611351565b6113b7818561135c565b93506113c28361136d565b8060005b838110156113f35781516113da888261137d565b97506113e583611395565b9250506001810190506113c6565b5085935050505092915050565b6000602082019050818103600083015261141a81846113a2565b905092915050565b600081519050919050565b6000819050602082019050919050565b60006114498383611248565b60208301905092915050565b6000602082019050919050565b600061146d82611422565b611477818561135c565b93506114828361142d565b8060005b838110156114b357815161149a888261143d565b97506114a583611455565b925050600181019050611486565b5085935050505092915050565b600060208201905081810360008301526114da8184611462565b905092915050565b600381106114ef57600080fd5b50565b600081359050611501816114e2565b92915050565b60006020828403121561151d5761151c610d9d565b5b600061152b848285016114f2565b91505092915050565b600082825260208201905092915050565b7f4f6e6c79207468652062757965722063616e2063616c6c20746869732066756e60008201527f6374696f6e000000000000000000000000000000000000000000000000000000602082015250565b60006115a1602583611534565b91506115ac82611545565b604082019050919050565b600060208201905081810360008301526115d081611594565b9050919050565b7f4e487b7100000000000000000000000000000000000000000000000000000000600052601160045260246000fd5b600061161182610da2565b91507fffffffffffffffffffffffffffffffffffffffffffffffffffffffffffffffff821415611644576116436115d7565b5b600182019050919050565b7f504f20616c726561647920726169736564000000000000000000000000000000600082015250565b6000611685601183611534565b91506116908261164f565b602082019050919050565b600060208201905081810360008301526116b481611678565b9050919050565b60006116c682610da2565b91506116d183610da2565b9250828210156116e4576116e36115d7565b5b828203905092915050565b7f4e487b7100000000000000000000000000000000000000000000000000000000600052603260045260246000fd5b7f4f6e6c792074686520737570706c6965722063616e2063616c6c20746869732060008201527f66756e6374696f6e000000000000000000000000000000000000000000000000602082015250565b600061177a602883611534565b91506117858261171e565b604082019050919050565b600060208201905081810360008301526117a98161176d565b9050919050565b7f4e6f20504f207261697365642062792074686973207573657200000000000000600082015250565b60006117e6601983611534565b91506117f1826117b0565b602082019050919050565b60006020820190508181036000830152611815816117d9565b905091905056fea26469706673582212201e0a7452942c9fbf077ab9b0871580879c4a6374af8cc8bace665ebdb75c01c964736f6c634300080c0033",
  "immutableReferences": {},
  "source": "// SPDX-License-Identifier: MIT\npragma solidity >=0.8.0 <=0.9.0;\n\n// contract for healthcare marketplace\ncontract Ethology {\n    // structs for representing the data\n    struct product {\n        uint256 id;\n        uint256 price;\n    }\n\n    enum buyerPhase {\n        RAISE_PO,\n        WITHDRAW_PO,\n        FREEZE_PO\n    }\n\n    enum supplierPhase {\n        INIT,\n        CANCELLED,\n        PROCURED,\n        DELIVERED\n    }\n\n    struct purchaseOrder {\n        buyerPhase buyerStatus;\n        supplierPhase supplierStatus;\n        uint256 price;\n        uint256 id;\n    }\n\n    // map representing the products the client has ordered\n    mapping(address => purchaseOrder[]) poList;\n    uint256[] PoIdList;\n    uint256[] PoPriceList;\n    supplierPhase[] PoSupplierStatusList;\n    buyerPhase[] PoBuyerStatusList;\n    address[] PoBuyerAddressList;\n\n    // owner of the contract\n    address supplier;\n    uint256 buyerCount = 0;\n\n    // address[] addresses;\n    // buyerPhase[] buyerPhases;\n\n    // constructor\n    constructor() {\n        supplier = msg.sender;\n    }\n\n    //  modifiers for restricted functions\n    modifier onlySupplier() {\n        require(\n            msg.sender == supplier,\n            \"Only the supplier can call this function\"\n        );\n        _;\n    }\n\n    modifier onlyBuyer() {\n        require(\n            msg.sender != supplier,\n            \"Only the buyer can call this function\"\n        );\n        _;\n    }\n\n    modifier validateBuyerPhase(buyerPhase phase) {\n        uint256 idx = getBuyerIndex(msg.sender);\n        require(phase > PoBuyerStatusList[idx], \"Invalid phase\");\n        _;\n    }\n\n    modifier validateSupplierPhase(supplierPhase phase, uint256 idx) {\n        require(phase > PoSupplierStatusList[idx], \"Invalid phase\");\n        _;\n    }\n\n    // utility functions\n    function getSupplier() public view returns (address) {\n        return supplier;\n    }\n\n    function getBuyer() public view returns (address) {\n        return msg.sender;\n    }\n\n    function getPoIdList() public view returns (uint256[] memory) {\n        return PoIdList;\n    }\n\n    function getPoPriceList() public view returns (uint256[] memory) {\n        return PoPriceList;\n    }\n\n    function getPoSupplierStatusList()\n        public\n        view\n        returns (supplierPhase[] memory)\n    {\n        return PoSupplierStatusList;\n    }\n\n    function getPoBuyerStatusList() public view returns (buyerPhase[] memory) {\n        return PoBuyerStatusList;\n    }\n\n    function getPoBuyerAddressList() public view returns (address[] memory) {\n        return PoBuyerAddressList;\n    }\n\n    function getPOList() public view returns (purchaseOrder[] memory) {\n        return poList[msg.sender];\n    }\n\n    function getBuyerIndex(address addr) public view returns (uint256) {\n        for (uint256 i = 1; i <= buyerCount; i++) {\n            if (addr == PoBuyerAddressList[i - 1]) {\n                return i;\n            }\n        }\n        return 0;\n    }\n\n    function getBuyerCount() public view returns (uint256) {\n        return buyerCount;\n    }\n\n    function isPoAlreadyRaised(uint256 id) public view returns (bool) {\n        uint256 currentUserIdx = getBuyerIndex(msg.sender);\n        if (currentUserIdx == 0) {\n            return false;\n        }\n        return PoIdList[currentUserIdx - 1] == id;\n    }\n\n    // function to add a product to the marketplace\n    function raisePO(uint256 id, uint256 price) public onlyBuyer {\n        if (!isPoAlreadyRaised(id)) {\n            PoBuyerAddressList.push(msg.sender);\n            PoIdList.push(id);\n            PoPriceList.push(price);\n            PoBuyerStatusList.push(buyerPhase.RAISE_PO);\n            PoSupplierStatusList.push(supplierPhase.INIT);\n            buyerCount++;\n        } else {\n            revert(\"PO already raised\");\n        }\n    }\n\n    function updateSupplierPhase(supplierPhase phase) public onlySupplier {\n        uint256 currentUserIdx = getBuyerIndex(msg.sender);\n        if (currentUserIdx == 0) {\n            revert(\"No PO raised by this user\");\n        }\n        PoSupplierStatusList[currentUserIdx - 1] = phase;\n    }\n\n    function updateBuyerPhase(buyerPhase phase) public onlyBuyer {\n        uint256 currentUserIdx = getBuyerIndex(msg.sender);\n        if (currentUserIdx == 0) {\n            revert(\"No PO raised by this user\");\n        }\n        PoBuyerStatusList[currentUserIdx - 1] = phase;\n    }\n\n    // ideally how it should be\n    function RaisePo(uint256 id, uint256 price) public {\n        poList[msg.sender].push(\n            purchaseOrder({\n                buyerStatus: buyerPhase.RAISE_PO,\n                supplierStatus: supplierPhase.INIT,\n                price: price,\n                id: id\n            })\n        );\n    }\n}\n",
  "sourcePath": "/home/shreyans/UB/Blockchain/projects/ethology-app/src/blockchain/contracts/Ethology.sol",
  "compiler": {
    "name": "solc",
    "version": "0.8.12+commit.f00d7308.Emscripten.clang"
  },
  "schemaVersion": "3.4.6",
  "updatedAt": "2022-04-17T02:40:29.506Z",
  "networkType": "ethereum",
  "devdoc": {
    "kind": "dev",
    "methods": {},
    "version": 1
  },
  "userdoc": {
    "kind": "user",
    "methods": {},
    "version": 1
  }
}