{
  "contractName": "Ethology",
  "abi": [
    {
      "inputs": [],
      "stateMutability": "nonpayable",
      "type": "constructor"
    },
    {
      "inputs": [],
      "name": "getSupplier",
      "outputs": [
        {
          "internalType": "address",
          "name": "",
          "type": "address"
        }
      ],
      "stateMutability": "view",
      "type": "function",
      "constant": true
    },
    {
      "inputs": [],
      "name": "getBuyer",
      "outputs": [
        {
          "internalType": "address",
          "name": "",
          "type": "address"
        }
      ],
      "stateMutability": "view",
      "type": "function",
      "constant": true
    },
    {
      "inputs": [],
      "name": "getPOList",
      "outputs": [
        {
          "components": [
            {
              "internalType": "enum Ethology.buyerPhase",
              "name": "buyerStatus",
              "type": "uint8"
            },
            {
              "internalType": "enum Ethology.supplierPhase",
              "name": "supplierStatus",
              "type": "uint8"
            },
            {
              "internalType": "uint256",
              "name": "price",
              "type": "uint256"
            },
            {
              "internalType": "uint256",
              "name": "id",
              "type": "uint256"
            },
            {
              "internalType": "address",
              "name": "buyer",
              "type": "address"
            }
          ],
          "internalType": "struct Ethology.purchaseOrder[]",
          "name": "",
          "type": "tuple[]"
        }
      ],
      "stateMutability": "view",
      "type": "function",
      "constant": true
    },
    {
      "inputs": [
        {
          "internalType": "enum Ethology.buyerPhase",
          "name": "phase",
          "type": "uint8"
        },
        {
          "internalType": "uint256",
          "name": "id",
          "type": "uint256"
        },
        {
          "internalType": "address",
          "name": "addr",
          "type": "address"
        }
      ],
      "name": "updateBuyerPhase",
      "outputs": [],
      "stateMutability": "nonpayable",
      "type": "function"
    },
    {
      "inputs": [
        {
          "internalType": "enum Ethology.supplierPhase",
          "name": "phase",
          "type": "uint8"
        },
        {
          "internalType": "uint256",
          "name": "id",
          "type": "uint256"
        },
        {
          "internalType": "address",
          "name": "addr",
          "type": "address"
        }
      ],
      "name": "updateSupplierPhase",
      "outputs": [],
      "stateMutability": "nonpayable",
      "type": "function"
    },
    {
      "inputs": [
        {
          "internalType": "uint256",
          "name": "idx",
          "type": "uint256"
        }
      ],
      "name": "_payToSupplier",
      "outputs": [],
      "stateMutability": "payable",
      "type": "function",
      "payable": true
    },
    {
      "inputs": [
        {
          "internalType": "uint256",
          "name": "id",
          "type": "uint256"
        },
        {
          "internalType": "uint256",
          "name": "price",
          "type": "uint256"
        }
      ],
      "name": "raisePo",
      "outputs": [],
      "stateMutability": "nonpayable",
      "type": "function"
    }
  ],
  "bytecode": "0x608060405234801561001057600080fd5b5033600160006101000a81548173ffffffffffffffffffffffffffffffffffffffff021916908373ffffffffffffffffffffffffffffffffffffffff160217905550610fee806100616000396000f3fe6080604052600436106100705760003560e01c806359a660f41161004e57806359a660f4146100f2578063603daf9a1461010e57806376a0601b14610139578063cf35f41e1461016257610070565b806323300ca41461007557806327fbaa31146100a05780633353d59b146100c9575b600080fd5b34801561008157600080fd5b5061008a61018d565b60405161009791906109e7565b60405180910390f35b3480156100ac57600080fd5b506100c760048036038101906100c29190610a3d565b6101b7565b005b3480156100d557600080fd5b506100f060048036038101906100eb9190610ace565b610397565b005b61010c60048036038101906101079190610b21565b610583565b005b34801561011a57600080fd5b506101236106ab565b60405161013091906109e7565b60405180910390f35b34801561014557600080fd5b50610160600480360381019061015b9190610b73565b6106b3565b005b34801561016e57600080fd5b50610177610867565b6040516101849190610dba565b60405180910390f35b6000600160009054906101000a900473ffffffffffffffffffffffffffffffffffffffff16905090565b600160009054906101000a900473ffffffffffffffffffffffffffffffffffffffff1673ffffffffffffffffffffffffffffffffffffffff163373ffffffffffffffffffffffffffffffffffffffff161415610248576040517f08c379a000000000000000000000000000000000000000000000000000000000815260040161023f90610e5f565b60405180910390fd5b60036040518060a001604052806000600281111561026957610268610bf2565b5b81526020016000600281111561028257610281610bf2565b5b81526020018381526020018481526020013373ffffffffffffffffffffffffffffffffffffffff16815250908060018154018082558091505060019003906000526020600020906004020160009091909190915060008201518160000160006101000a81548160ff0219169083600281111561030157610300610bf2565b5b021790555060208201518160000160016101000a81548160ff0219169083600281111561033157610330610bf2565b5b0217905550604082015181600101556060820151816002015560808201518160030160006101000a81548173ffffffffffffffffffffffffffffffffffffffff021916908373ffffffffffffffffffffffffffffffffffffffff16021790555050505050565b600160009054906101000a900473ffffffffffffffffffffffffffffffffffffffff1673ffffffffffffffffffffffffffffffffffffffff163373ffffffffffffffffffffffffffffffffffffffff161415610428576040517f08c379a000000000000000000000000000000000000000000000000000000000815260040161041f90610e5f565b60405180910390fd5b60005b60038054905081101561057d57826003828154811061044d5761044c610e7f565b5b9060005260206000209060040201600201541480156104dc57508173ffffffffffffffffffffffffffffffffffffffff166003828154811061049257610491610e7f565b5b906000526020600020906004020160030160009054906101000a900473ffffffffffffffffffffffffffffffffffffffff1673ffffffffffffffffffffffffffffffffffffffff16145b1561056a57600160028111156104f5576104f4610bf2565b5b84600281111561050857610507610bf2565b5b14156105185761051781610583565b5b836003828154811061052d5761052c610e7f565b5b906000526020600020906004020160000160006101000a81548160ff021916908360028111156105605761055f610bf2565b5b021790555061057d565b808061057590610edd565b91505061042b565b50505050565b600160009054906101000a900473ffffffffffffffffffffffffffffffffffffffff1673ffffffffffffffffffffffffffffffffffffffff163373ffffffffffffffffffffffffffffffffffffffff161415610614576040517f08c379a000000000000000000000000000000000000000000000000000000000815260040161060b90610e5f565b60405180910390fd5b60006003828154811061062a57610629610e7f565b5b9060005260206000209060040201600101549050600160009054906101000a900473ffffffffffffffffffffffffffffffffffffffff1673ffffffffffffffffffffffffffffffffffffffff166108fc829081150290604051600060405180830381858888f193505050501580156106a6573d6000803e3d6000fd5b505050565b600033905090565b600160009054906101000a900473ffffffffffffffffffffffffffffffffffffffff1673ffffffffffffffffffffffffffffffffffffffff163373ffffffffffffffffffffffffffffffffffffffff1614610743576040517f08c379a000000000000000000000000000000000000000000000000000000000815260040161073a90610f98565b60405180910390fd5b60005b60038054905081101561086157826003828154811061076857610767610e7f565b5b9060005260206000209060040201600201541480156107f757508173ffffffffffffffffffffffffffffffffffffffff16600382815481106107ad576107ac610e7f565b5b906000526020600020906004020160030160009054906101000a900473ffffffffffffffffffffffffffffffffffffffff1673ffffffffffffffffffffffffffffffffffffffff16145b1561084e57836003828154811061081157610810610e7f565b5b906000526020600020906004020160000160016101000a81548160ff0219169083600281111561084457610843610bf2565b5b0217905550610861565b808061085990610edd565b915050610746565b50505050565b60606003805480602002602001604051908101604052809291908181526020016000905b8282101561099d57838290600052602060002090600402016040518060a00160405290816000820160009054906101000a900460ff1660028111156108d3576108d2610bf2565b5b60028111156108e5576108e4610bf2565b5b81526020016000820160019054906101000a900460ff16600281111561090e5761090d610bf2565b5b60028111156109205761091f610bf2565b5b815260200160018201548152602001600282015481526020016003820160009054906101000a900473ffffffffffffffffffffffffffffffffffffffff1673ffffffffffffffffffffffffffffffffffffffff1673ffffffffffffffffffffffffffffffffffffffff16815250508152602001906001019061088b565b50505050905090565b600073ffffffffffffffffffffffffffffffffffffffff82169050919050565b60006109d1826109a6565b9050919050565b6109e1816109c6565b82525050565b60006020820190506109fc60008301846109d8565b92915050565b600080fd5b6000819050919050565b610a1a81610a07565b8114610a2557600080fd5b50565b600081359050610a3781610a11565b92915050565b60008060408385031215610a5457610a53610a02565b5b6000610a6285828601610a28565b9250506020610a7385828601610a28565b9150509250929050565b60038110610a8a57600080fd5b50565b600081359050610a9c81610a7d565b92915050565b610aab816109c6565b8114610ab657600080fd5b50565b600081359050610ac881610aa2565b92915050565b600080600060608486031215610ae757610ae6610a02565b5b6000610af586828701610a8d565b9350506020610b0686828701610a28565b9250506040610b1786828701610ab9565b9150509250925092565b600060208284031215610b3757610b36610a02565b5b6000610b4584828501610a28565b91505092915050565b60038110610b5b57600080fd5b50565b600081359050610b6d81610b4e565b92915050565b600080600060608486031215610b8c57610b8b610a02565b5b6000610b9a86828701610b5e565b9350506020610bab86828701610a28565b9250506040610bbc86828701610ab9565b9150509250925092565b600081519050919050565b600082825260208201905092915050565b6000819050602082019050919050565b7f4e487b7100000000000000000000000000000000000000000000000000000000600052602160045260246000fd5b60038110610c3257610c31610bf2565b5b50565b6000819050610c4382610c21565b919050565b6000610c5382610c35565b9050919050565b610c6381610c48565b82525050565b60038110610c7a57610c79610bf2565b5b50565b6000819050610c8b82610c69565b919050565b6000610c9b82610c7d565b9050919050565b610cab81610c90565b82525050565b610cba81610a07565b82525050565b610cc9816109c6565b82525050565b60a082016000820151610ce56000850182610c5a565b506020820151610cf86020850182610ca2565b506040820151610d0b6040850182610cb1565b506060820151610d1e6060850182610cb1565b506080820151610d316080850182610cc0565b50505050565b6000610d438383610ccf565b60a08301905092915050565b6000602082019050919050565b6000610d6782610bc6565b610d718185610bd1565b9350610d7c83610be2565b8060005b83811015610dad578151610d948882610d37565b9750610d9f83610d4f565b925050600181019050610d80565b5085935050505092915050565b60006020820190508181036000830152610dd48184610d5c565b905092915050565b600082825260208201905092915050565b7f4f6e6c79207468652062757965722063616e2063616c6c20746869732066756e60008201527f6374696f6e000000000000000000000000000000000000000000000000000000602082015250565b6000610e49602583610ddc565b9150610e5482610ded565b604082019050919050565b60006020820190508181036000830152610e7881610e3c565b9050919050565b7f4e487b7100000000000000000000000000000000000000000000000000000000600052603260045260246000fd5b7f4e487b7100000000000000000000000000000000000000000000000000000000600052601160045260246000fd5b6000610ee882610a07565b91507fffffffffffffffffffffffffffffffffffffffffffffffffffffffffffffffff821415610f1b57610f1a610eae565b5b600182019050919050565b7f4f6e6c792074686520737570706c6965722063616e2063616c6c20746869732060008201527f66756e6374696f6e000000000000000000000000000000000000000000000000602082015250565b6000610f82602883610ddc565b9150610f8d82610f26565b604082019050919050565b60006020820190508181036000830152610fb181610f75565b905091905056fea264697066735822122066a28de39bc965b86c609c042e7f7ea8cb02eac81049f717772cf677ef8b1de164736f6c634300080c0033",
  "immutableReferences": {},
  "source": "// SPDX-License-Identifier: MIT\npragma solidity >=0.8.0 <=0.9.0;\n\n// contract for healthcare marketplace\ncontract Ethology {\n    // structs for representing the data\n    struct product {\n        uint256 id;\n        uint256 price;\n    }\n\n    enum buyerPhase {\n        RAISE_PO,\n        FREEZE_PO,\n        WITHDRAW_PO\n    }\n\n    enum supplierPhase {\n        INIT,\n        PROCURED,\n        DELIVERED\n    }\n\n    struct purchaseOrder {\n        buyerPhase buyerStatus;\n        supplierPhase supplierStatus;\n        uint256 price;\n        uint256 id;\n        address buyer;\n    }\n\n    // map representing the products the client has ordered\n    mapping(address => purchaseOrder[]) poList;\n\n    // owner of the contract\n    address payable supplier;\n    uint256 buyerCount;\n    purchaseOrder[] buyerPO;\n\n    // constructor\n    constructor() {\n        supplier = payable(msg.sender);\n    }\n\n    //  modifiers for restricted functions\n    modifier onlySupplier() {\n        require(\n            msg.sender == supplier,\n            \"Only the supplier can call this function\"\n        );\n        _;\n    }\n\n    modifier onlyBuyer() {\n        require(\n            msg.sender != supplier,\n            \"Only the buyer can call this function\"\n        );\n        _;\n    }\n\n    // utility functions\n    function getSupplier() public view returns (address) {\n        return supplier;\n    }\n\n    function getBuyer() public view returns (address) {\n        return msg.sender;\n    }\n\n    function getPOList() public view returns (purchaseOrder[] memory) {\n        return buyerPO;\n    }\n\n    function updateBuyerPhase(\n        buyerPhase phase,\n        uint256 id,\n        address addr\n    ) public onlyBuyer {\n        // loop over the buyerPO array\n        for (uint256 i = 0; i < buyerPO.length; i++) {\n            // if the id matches\n            if (buyerPO[i].id == id && buyerPO[i].buyer == addr) {\n                if (phase == buyerPhase.FREEZE_PO) {\n                    _payToSupplier(i);\n                }\n                // update the phase\n                buyerPO[i].buyerStatus = phase;\n                break;\n            }\n        }\n    }\n\n    function updateSupplierPhase(\n        supplierPhase phase,\n        uint256 id,\n        address addr\n    ) public onlySupplier {\n        // loop over the buyerPO array\n        for (uint256 i = 0; i < buyerPO.length; i++) {\n            // if the id matches\n            if (buyerPO[i].id == id && buyerPO[i].buyer == addr) {\n                // update the phase\n                buyerPO[i].supplierStatus = phase;\n                break;\n            }\n        }\n    }\n\n    // function to pay to the supplier\n    function _payToSupplier(uint256 idx) public payable onlyBuyer {\n        // get the price\n        uint256 price = buyerPO[idx].price;\n        // send the ether to the supplier\n        payable(supplier).transfer(price);\n    }\n\n    // initial function to raise the purchase order\n    function raisePo(uint256 id, uint256 price) public onlyBuyer {\n        buyerPO.push(\n            purchaseOrder({\n                buyerStatus: buyerPhase.RAISE_PO,\n                supplierStatus: supplierPhase.INIT,\n                price: price,\n                id: id,\n                buyer: msg.sender\n            })\n        );\n    }\n}\n",
  "sourcePath": "/home/shreyans/UB/Blockchain/projects/ethology-app/src/blockchain/contracts/Ethology.sol",
  "compiler": {
    "name": "solc",
    "version": "0.8.12+commit.f00d7308.Emscripten.clang"
  },
  "schemaVersion": "3.4.6",
  "updatedAt": "2022-04-17T15:07:06.542Z",
  "networkType": "ethereum",
  "devdoc": {
    "kind": "dev",
    "methods": {},
    "version": 1
  },
  "userdoc": {
    "kind": "user",
    "methods": {},
    "version": 1
  }
}