{
  "contractName": "Ethology",
  "abi": [
    {
      "inputs": [],
      "stateMutability": "nonpayable",
      "type": "constructor"
    },
    {
      "inputs": [],
      "name": "getSupplier",
      "outputs": [
        {
          "internalType": "address",
          "name": "",
          "type": "address"
        }
      ],
      "stateMutability": "view",
      "type": "function",
      "constant": true
    },
    {
      "inputs": [],
      "name": "getBuyer",
      "outputs": [
        {
          "internalType": "address",
          "name": "",
          "type": "address"
        }
      ],
      "stateMutability": "view",
      "type": "function",
      "constant": true
    },
    {
      "inputs": [],
      "name": "getPOList",
      "outputs": [
        {
          "components": [
            {
              "internalType": "enum Ethology.buyerPhase",
              "name": "buyerStatus",
              "type": "uint8"
            },
            {
              "internalType": "enum Ethology.supplierPhase",
              "name": "supplierStatus",
              "type": "uint8"
            },
            {
              "internalType": "uint256",
              "name": "price",
              "type": "uint256"
            },
            {
              "internalType": "uint256",
              "name": "id",
              "type": "uint256"
            },
            {
              "internalType": "address",
              "name": "buyer",
              "type": "address"
            }
          ],
          "internalType": "struct Ethology.purchaseOrder[]",
          "name": "",
          "type": "tuple[]"
        }
      ],
      "stateMutability": "view",
      "type": "function",
      "constant": true
    },
    {
      "inputs": [],
      "name": "getBalance",
      "outputs": [
        {
          "internalType": "uint256",
          "name": "",
          "type": "uint256"
        }
      ],
      "stateMutability": "view",
      "type": "function",
      "constant": true
    },
    {
      "inputs": [
        {
          "internalType": "enum Ethology.buyerPhase",
          "name": "phase",
          "type": "uint8"
        },
        {
          "internalType": "uint256",
          "name": "id",
          "type": "uint256"
        },
        {
          "internalType": "address",
          "name": "addr",
          "type": "address"
        }
      ],
      "name": "updateBuyerPhase",
      "outputs": [],
      "stateMutability": "nonpayable",
      "type": "function"
    },
    {
      "inputs": [
        {
          "internalType": "enum Ethology.supplierPhase",
          "name": "phase",
          "type": "uint8"
        },
        {
          "internalType": "uint256",
          "name": "id",
          "type": "uint256"
        },
        {
          "internalType": "address",
          "name": "addr",
          "type": "address"
        }
      ],
      "name": "updateSupplierPhase",
      "outputs": [],
      "stateMutability": "nonpayable",
      "type": "function"
    },
    {
      "inputs": [],
      "name": "getBuyerBalance",
      "outputs": [
        {
          "internalType": "uint256",
          "name": "",
          "type": "uint256"
        }
      ],
      "stateMutability": "view",
      "type": "function",
      "constant": true
    },
    {
      "inputs": [
        {
          "internalType": "uint256",
          "name": "idx",
          "type": "uint256"
        }
      ],
      "name": "initiatePayment",
      "outputs": [],
      "stateMutability": "payable",
      "type": "function",
      "payable": true
    },
    {
      "inputs": [
        {
          "internalType": "uint256",
          "name": "id",
          "type": "uint256"
        },
        {
          "internalType": "uint256",
          "name": "price",
          "type": "uint256"
        }
      ],
      "name": "raisePo",
      "outputs": [],
      "stateMutability": "nonpayable",
      "type": "function"
    }
  ],
  "bytecode": "0x608060405234801561001057600080fd5b5033600260006101000a81548173ffffffffffffffffffffffffffffffffffffffff021916908373ffffffffffffffffffffffffffffffffffffffff16021790555060c8600160003373ffffffffffffffffffffffffffffffffffffffff1673ffffffffffffffffffffffffffffffffffffffff16815260200190815260200160002081905550611293806100a66000396000f3fe6080604052600436106100865760003560e01c8063603daf9a11610059578063603daf9a1461013357806376a0601b1461015e57806378114d4714610187578063cf35f41e146101a3578063d9978865146101ce57610086565b806312065fe01461008b57806323300ca4146100b657806327fbaa31146100e15780633353d59b1461010a575b600080fd5b34801561009757600080fd5b506100a06101f9565b6040516100ad9190610bb0565b60405180910390f35b3480156100c257600080fd5b506100cb6102d0565b6040516100d89190610c0c565b60405180910390f35b3480156100ed57600080fd5b5061010860048036038101906101039190610c58565b6102fa565b005b34801561011657600080fd5b50610131600480360381019061012c9190610ce9565b61051f565b005b34801561013f57600080fd5b506101486106d4565b6040516101559190610c0c565b60405180910390f35b34801561016a57600080fd5b5061018560048036038101906101809190610d61565b6106dc565b005b6101a1600480360381019061019c9190610db4565b610890565b005b3480156101af57600080fd5b506101b8610a11565b6040516101c59190610fd5565b60405180910390f35b3480156101da57600080fd5b506101e3610b50565b6040516101f09190610bb0565b60405180910390f35b6000600260009054906101000a900473ffffffffffffffffffffffffffffffffffffffff1673ffffffffffffffffffffffffffffffffffffffff163373ffffffffffffffffffffffffffffffffffffffff161461028b576040517f08c379a00000000000000000000000000000000000000000000000000000000081526004016102829061107a565b60405180910390fd5b600160003373ffffffffffffffffffffffffffffffffffffffff1673ffffffffffffffffffffffffffffffffffffffff16815260200190815260200160002054905090565b6000600260009054906101000a900473ffffffffffffffffffffffffffffffffffffffff16905090565b600260009054906101000a900473ffffffffffffffffffffffffffffffffffffffff1673ffffffffffffffffffffffffffffffffffffffff163373ffffffffffffffffffffffffffffffffffffffff16141561038b576040517f08c379a00000000000000000000000000000000000000000000000000000000081526004016103829061110c565b60405180910390fd5b60046040518060a00160405280600060028111156103ac576103ab610e0d565b5b8152602001600060028111156103c5576103c4610e0d565b5b81526020018381526020018481526020013373ffffffffffffffffffffffffffffffffffffffff16815250908060018154018082558091505060019003906000526020600020906004020160009091909190915060008201518160000160006101000a81548160ff0219169083600281111561044457610443610e0d565b5b021790555060208201518160000160016101000a81548160ff0219169083600281111561047457610473610e0d565b5b0217905550604082015181600101556060820151816002015560808201518160030160006101000a81548173ffffffffffffffffffffffffffffffffffffffff021916908373ffffffffffffffffffffffffffffffffffffffff16021790555050506065600160003373ffffffffffffffffffffffffffffffffffffffff1673ffffffffffffffffffffffffffffffffffffffff168152602001908152602001600020819055505050565b600260009054906101000a900473ffffffffffffffffffffffffffffffffffffffff1673ffffffffffffffffffffffffffffffffffffffff163373ffffffffffffffffffffffffffffffffffffffff1614156105b0576040517f08c379a00000000000000000000000000000000000000000000000000000000081526004016105a79061110c565b60405180910390fd5b60005b6004805490508110156106ce5782600482815481106105d5576105d461112c565b5b90600052602060002090600402016002015414801561066457508173ffffffffffffffffffffffffffffffffffffffff166004828154811061061a5761061961112c565b5b906000526020600020906004020160030160009054906101000a900473ffffffffffffffffffffffffffffffffffffffff1673ffffffffffffffffffffffffffffffffffffffff16145b156106bb57836004828154811061067e5761067d61112c565b5b906000526020600020906004020160000160006101000a81548160ff021916908360028111156106b1576106b0610e0d565b5b02179055506106ce565b80806106c69061118a565b9150506105b3565b50505050565b600033905090565b600260009054906101000a900473ffffffffffffffffffffffffffffffffffffffff1673ffffffffffffffffffffffffffffffffffffffff163373ffffffffffffffffffffffffffffffffffffffff161461076c576040517f08c379a00000000000000000000000000000000000000000000000000000000081526004016107639061107a565b60405180910390fd5b60005b60048054905081101561088a5782600482815481106107915761079061112c565b5b90600052602060002090600402016002015414801561082057508173ffffffffffffffffffffffffffffffffffffffff16600482815481106107d6576107d561112c565b5b906000526020600020906004020160030160009054906101000a900473ffffffffffffffffffffffffffffffffffffffff1673ffffffffffffffffffffffffffffffffffffffff16145b1561087757836004828154811061083a5761083961112c565b5b906000526020600020906004020160000160016101000a81548160ff0219169083600281111561086d5761086c610e0d565b5b021790555061088a565b80806108829061118a565b91505061076f565b50505050565b600260009054906101000a900473ffffffffffffffffffffffffffffffffffffffff1673ffffffffffffffffffffffffffffffffffffffff163373ffffffffffffffffffffffffffffffffffffffff161415610921576040517f08c379a00000000000000000000000000000000000000000000000000000000081526004016109189061110c565b60405180910390fd5b6000600482815481106109375761093661112c565b5b906000526020600020906004020160010154905080600160003073ffffffffffffffffffffffffffffffffffffffff1673ffffffffffffffffffffffffffffffffffffffff1681526020019081526020016000205461099691906111d3565b60016000600260009054906101000a900473ffffffffffffffffffffffffffffffffffffffff1673ffffffffffffffffffffffffffffffffffffffff1673ffffffffffffffffffffffffffffffffffffffff1681526020019081526020016000206000828254610a069190611207565b925050819055505050565b60606004805480602002602001604051908101604052809291908181526020016000905b82821015610b4757838290600052602060002090600402016040518060a00160405290816000820160009054906101000a900460ff166002811115610a7d57610a7c610e0d565b5b6002811115610a8f57610a8e610e0d565b5b81526020016000820160019054906101000a900460ff166002811115610ab857610ab7610e0d565b5b6002811115610aca57610ac9610e0d565b5b815260200160018201548152602001600282015481526020016003820160009054906101000a900473ffffffffffffffffffffffffffffffffffffffff1673ffffffffffffffffffffffffffffffffffffffff1673ffffffffffffffffffffffffffffffffffffffff168152505081526020019060010190610a35565b50505050905090565b6000600160003373ffffffffffffffffffffffffffffffffffffffff1673ffffffffffffffffffffffffffffffffffffffff16815260200190815260200160002054905090565b6000819050919050565b610baa81610b97565b82525050565b6000602082019050610bc56000830184610ba1565b92915050565b600073ffffffffffffffffffffffffffffffffffffffff82169050919050565b6000610bf682610bcb565b9050919050565b610c0681610beb565b82525050565b6000602082019050610c216000830184610bfd565b92915050565b600080fd5b610c3581610b97565b8114610c4057600080fd5b50565b600081359050610c5281610c2c565b92915050565b60008060408385031215610c6f57610c6e610c27565b5b6000610c7d85828601610c43565b9250506020610c8e85828601610c43565b9150509250929050565b60038110610ca557600080fd5b50565b600081359050610cb781610c98565b92915050565b610cc681610beb565b8114610cd157600080fd5b50565b600081359050610ce381610cbd565b92915050565b600080600060608486031215610d0257610d01610c27565b5b6000610d1086828701610ca8565b9350506020610d2186828701610c43565b9250506040610d3286828701610cd4565b9150509250925092565b60038110610d4957600080fd5b50565b600081359050610d5b81610d3c565b92915050565b600080600060608486031215610d7a57610d79610c27565b5b6000610d8886828701610d4c565b9350506020610d9986828701610c43565b9250506040610daa86828701610cd4565b9150509250925092565b600060208284031215610dca57610dc9610c27565b5b6000610dd884828501610c43565b91505092915050565b600081519050919050565b600082825260208201905092915050565b6000819050602082019050919050565b7f4e487b7100000000000000000000000000000000000000000000000000000000600052602160045260246000fd5b60038110610e4d57610e4c610e0d565b5b50565b6000819050610e5e82610e3c565b919050565b6000610e6e82610e50565b9050919050565b610e7e81610e63565b82525050565b60038110610e9557610e94610e0d565b5b50565b6000819050610ea682610e84565b919050565b6000610eb682610e98565b9050919050565b610ec681610eab565b82525050565b610ed581610b97565b82525050565b610ee481610beb565b82525050565b60a082016000820151610f006000850182610e75565b506020820151610f136020850182610ebd565b506040820151610f266040850182610ecc565b506060820151610f396060850182610ecc565b506080820151610f4c6080850182610edb565b50505050565b6000610f5e8383610eea565b60a08301905092915050565b6000602082019050919050565b6000610f8282610de1565b610f8c8185610dec565b9350610f9783610dfd565b8060005b83811015610fc8578151610faf8882610f52565b9750610fba83610f6a565b925050600181019050610f9b565b5085935050505092915050565b60006020820190508181036000830152610fef8184610f77565b905092915050565b600082825260208201905092915050565b7f4f6e6c792074686520737570706c6965722063616e2063616c6c20746869732060008201527f66756e6374696f6e000000000000000000000000000000000000000000000000602082015250565b6000611064602883610ff7565b915061106f82611008565b604082019050919050565b6000602082019050818103600083015261109381611057565b9050919050565b7f4f6e6c79207468652062757965722063616e2063616c6c20746869732066756e60008201527f6374696f6e000000000000000000000000000000000000000000000000000000602082015250565b60006110f6602583610ff7565b91506111018261109a565b604082019050919050565b60006020820190508181036000830152611125816110e9565b9050919050565b7f4e487b7100000000000000000000000000000000000000000000000000000000600052603260045260246000fd5b7f4e487b7100000000000000000000000000000000000000000000000000000000600052601160045260246000fd5b600061119582610b97565b91507fffffffffffffffffffffffffffffffffffffffffffffffffffffffffffffffff8214156111c8576111c761115b565b5b600182019050919050565b60006111de82610b97565b91506111e983610b97565b9250828210156111fc576111fb61115b565b5b828203905092915050565b600061121282610b97565b915061121d83610b97565b9250827fffffffffffffffffffffffffffffffffffffffffffffffffffffffffffffffff038211156112525761125161115b565b5b82820190509291505056fea2646970667358221220efb9f45d31a4ceb1e4f8fa58db3b13609cfcf662d7ac8df7a5575260fa1d8c2664736f6c634300080c0033",
  "immutableReferences": {},
  "source": "// SPDX-License-Identifier: MIT\npragma solidity >=0.8.0 <=0.9.0;\n\n// contract for healthcare marketplace\ncontract Ethology {\n    // structs for representing the data\n    struct product {\n        uint256 id;\n        uint256 price;\n    }\n\n    enum buyerPhase {\n        RAISE_PO,\n        FREEZE_PO,\n        WITHDRAW_PO\n    }\n\n    enum supplierPhase {\n        INIT,\n        PROCURED,\n        DELIVERED\n    }\n\n    struct purchaseOrder {\n        buyerPhase buyerStatus;\n        supplierPhase supplierStatus;\n        uint256 price;\n        uint256 id;\n        address buyer;\n    }\n\n    struct balance {\n        address addr;\n        uint256 balance;\n    }\n\n    // map representing the products the client has ordered\n    mapping(address => purchaseOrder[]) poList;\n    mapping(address => uint256) balances;\n\n    // owner of the contract\n    address payable supplier;\n    uint256 buyerCount;\n    purchaseOrder[] buyerPO;\n\n    // constructor\n    constructor() {\n        supplier = payable(msg.sender);\n        balances[msg.sender] = 200;\n    }\n\n    //  modifiers for restricted functions\n    modifier onlySupplier() {\n        require(\n            msg.sender == supplier,\n            \"Only the supplier can call this function\"\n        );\n        _;\n    }\n\n    modifier onlyBuyer() {\n        require(\n            msg.sender != supplier,\n            \"Only the buyer can call this function\"\n        );\n        _;\n    }\n\n    // utility functions\n    function getSupplier() public view returns (address) {\n        return supplier;\n    }\n\n    function getBuyer() public view returns (address) {\n        return msg.sender;\n    }\n\n    function getPOList() public view returns (purchaseOrder[] memory) {\n        return buyerPO;\n    }\n\n    function getBalance() public view onlySupplier returns (uint256)  {\n        return balances[msg.sender];\n    }\n\n    function updateBuyerPhase(\n        buyerPhase phase,\n        uint256 id,\n        address addr\n    ) public onlyBuyer {\n        // loop over the buyerPO array\n        for (uint256 i = 0; i < buyerPO.length; i++) {\n            // if the id matches\n            if (buyerPO[i].id == id && buyerPO[i].buyer == addr) {\n                // update the phase\n                buyerPO[i].buyerStatus = phase;\n                break;\n            }\n        }\n    }\n\n    function updateSupplierPhase(\n        supplierPhase phase,\n        uint256 id,\n        address addr\n    ) public onlySupplier {\n        // loop over the buyerPO array\n        for (uint256 i = 0; i < buyerPO.length; i++) {\n            // if the id matches\n            if (buyerPO[i].id == id && buyerPO[i].buyer == addr) {\n                // update the phase\n                buyerPO[i].supplierStatus = phase;\n                break;\n            }\n        }\n    }\n\n    function getBuyerBalance() public view returns (uint256) {\n        return balances[msg.sender];\n    }\n\n    // function to pay to the supplier\n    function initiatePayment(uint256 idx) public payable onlyBuyer {\n        // get the price\n        uint256 toPay = buyerPO[idx].price;\n        // add an assert as well\n        // send the ether to the supplier\n        balances[supplier] += balances[address(this)] - toPay;\n    }\n\n    // initial function to raise the purchase order\n    function raisePo(uint256 id, uint256 price) public onlyBuyer {\n        buyerPO.push(\n            purchaseOrder({\n                buyerStatus: buyerPhase.RAISE_PO,\n                supplierStatus: supplierPhase.INIT,\n                price: price,\n                id: id,\n                buyer: msg.sender\n            })\n        );\n\n        // update the balance too\n        balances[msg.sender] = 101;\n    }\n}\n",
  "sourcePath": "/home/shreyans/UB/Blockchain/projects/ethology-app/src/blockchain/contracts/Ethology.sol",
  "compiler": {
    "name": "solc",
    "version": "0.8.12+commit.f00d7308.Emscripten.clang"
  },
  "schemaVersion": "3.4.6",
  "updatedAt": "2022-04-17T17:33:10.464Z",
  "networkType": "ethereum",
  "devdoc": {
    "kind": "dev",
    "methods": {},
    "version": 1
  },
  "userdoc": {
    "kind": "user",
    "methods": {},
    "version": 1
  }
}