{
  "contractName": "Ethology",
  "abi": [
    {
      "inputs": [],
      "stateMutability": "payable",
      "type": "constructor",
      "payable": true
    },
    {
      "anonymous": false,
      "inputs": [
        {
          "indexed": true,
          "internalType": "address",
          "name": "owner",
          "type": "address"
        },
        {
          "indexed": true,
          "internalType": "address",
          "name": "spender",
          "type": "address"
        },
        {
          "indexed": false,
          "internalType": "uint256",
          "name": "value",
          "type": "uint256"
        }
      ],
      "name": "Approval",
      "type": "event"
    },
    {
      "anonymous": false,
      "inputs": [
        {
          "indexed": true,
          "internalType": "address",
          "name": "from",
          "type": "address"
        },
        {
          "indexed": true,
          "internalType": "address",
          "name": "to",
          "type": "address"
        },
        {
          "indexed": false,
          "internalType": "uint256",
          "name": "value",
          "type": "uint256"
        }
      ],
      "name": "Transfer",
      "type": "event"
    },
    {
      "inputs": [
        {
          "internalType": "address",
          "name": "owner",
          "type": "address"
        },
        {
          "internalType": "address",
          "name": "spender",
          "type": "address"
        }
      ],
      "name": "allowance",
      "outputs": [
        {
          "internalType": "uint256",
          "name": "",
          "type": "uint256"
        }
      ],
      "stateMutability": "view",
      "type": "function",
      "constant": true
    },
    {
      "inputs": [
        {
          "internalType": "address",
          "name": "spender",
          "type": "address"
        },
        {
          "internalType": "uint256",
          "name": "amount",
          "type": "uint256"
        }
      ],
      "name": "approve",
      "outputs": [
        {
          "internalType": "bool",
          "name": "",
          "type": "bool"
        }
      ],
      "stateMutability": "nonpayable",
      "type": "function"
    },
    {
      "inputs": [
        {
          "internalType": "address",
          "name": "account",
          "type": "address"
        }
      ],
      "name": "balanceOf",
      "outputs": [
        {
          "internalType": "uint256",
          "name": "",
          "type": "uint256"
        }
      ],
      "stateMutability": "view",
      "type": "function",
      "constant": true
    },
    {
      "inputs": [],
      "name": "decimals",
      "outputs": [
        {
          "internalType": "uint8",
          "name": "",
          "type": "uint8"
        }
      ],
      "stateMutability": "view",
      "type": "function",
      "constant": true
    },
    {
      "inputs": [
        {
          "internalType": "address",
          "name": "spender",
          "type": "address"
        },
        {
          "internalType": "uint256",
          "name": "subtractedValue",
          "type": "uint256"
        }
      ],
      "name": "decreaseAllowance",
      "outputs": [
        {
          "internalType": "bool",
          "name": "",
          "type": "bool"
        }
      ],
      "stateMutability": "nonpayable",
      "type": "function"
    },
    {
      "inputs": [
        {
          "internalType": "address",
          "name": "spender",
          "type": "address"
        },
        {
          "internalType": "uint256",
          "name": "addedValue",
          "type": "uint256"
        }
      ],
      "name": "increaseAllowance",
      "outputs": [
        {
          "internalType": "bool",
          "name": "",
          "type": "bool"
        }
      ],
      "stateMutability": "nonpayable",
      "type": "function"
    },
    {
      "inputs": [],
      "name": "name",
      "outputs": [
        {
          "internalType": "string",
          "name": "",
          "type": "string"
        }
      ],
      "stateMutability": "view",
      "type": "function",
      "constant": true
    },
    {
      "inputs": [],
      "name": "symbol",
      "outputs": [
        {
          "internalType": "string",
          "name": "",
          "type": "string"
        }
      ],
      "stateMutability": "view",
      "type": "function",
      "constant": true
    },
    {
      "inputs": [],
      "name": "totalSupply",
      "outputs": [
        {
          "internalType": "uint256",
          "name": "",
          "type": "uint256"
        }
      ],
      "stateMutability": "view",
      "type": "function",
      "constant": true
    },
    {
      "inputs": [
        {
          "internalType": "address",
          "name": "to",
          "type": "address"
        },
        {
          "internalType": "uint256",
          "name": "amount",
          "type": "uint256"
        }
      ],
      "name": "transfer",
      "outputs": [
        {
          "internalType": "bool",
          "name": "",
          "type": "bool"
        }
      ],
      "stateMutability": "nonpayable",
      "type": "function"
    },
    {
      "inputs": [
        {
          "internalType": "address",
          "name": "from",
          "type": "address"
        },
        {
          "internalType": "address",
          "name": "to",
          "type": "address"
        },
        {
          "internalType": "uint256",
          "name": "amount",
          "type": "uint256"
        }
      ],
      "name": "transferFrom",
      "outputs": [
        {
          "internalType": "bool",
          "name": "",
          "type": "bool"
        }
      ],
      "stateMutability": "nonpayable",
      "type": "function"
    },
    {
      "inputs": [],
      "name": "getSupplier",
      "outputs": [
        {
          "internalType": "address",
          "name": "",
          "type": "address"
        }
      ],
      "stateMutability": "view",
      "type": "function",
      "constant": true
    },
    {
      "inputs": [],
      "name": "getBuyer",
      "outputs": [
        {
          "internalType": "address",
          "name": "",
          "type": "address"
        }
      ],
      "stateMutability": "view",
      "type": "function",
      "constant": true
    },
    {
      "inputs": [],
      "name": "getPOList",
      "outputs": [
        {
          "components": [
            {
              "internalType": "enum Ethology.buyerPhase",
              "name": "buyerStatus",
              "type": "uint8"
            },
            {
              "internalType": "enum Ethology.supplierPhase",
              "name": "supplierStatus",
              "type": "uint8"
            },
            {
              "internalType": "uint256",
              "name": "price",
              "type": "uint256"
            },
            {
              "internalType": "uint256",
              "name": "id",
              "type": "uint256"
            },
            {
              "internalType": "address",
              "name": "buyer",
              "type": "address"
            }
          ],
          "internalType": "struct Ethology.purchaseOrder[]",
          "name": "",
          "type": "tuple[]"
        }
      ],
      "stateMutability": "view",
      "type": "function",
      "constant": true
    },
    {
      "inputs": [],
      "name": "getBalance",
      "outputs": [
        {
          "internalType": "uint256",
          "name": "",
          "type": "uint256"
        }
      ],
      "stateMutability": "view",
      "type": "function",
      "constant": true
    },
    {
      "inputs": [
        {
          "internalType": "enum Ethology.buyerPhase",
          "name": "phase",
          "type": "uint8"
        },
        {
          "internalType": "uint256",
          "name": "id",
          "type": "uint256"
        },
        {
          "internalType": "address",
          "name": "addr",
          "type": "address"
        }
      ],
      "name": "updateBuyerPhase",
      "outputs": [],
      "stateMutability": "nonpayable",
      "type": "function"
    },
    {
      "inputs": [
        {
          "internalType": "enum Ethology.supplierPhase",
          "name": "phase",
          "type": "uint8"
        },
        {
          "internalType": "uint256",
          "name": "id",
          "type": "uint256"
        },
        {
          "internalType": "address",
          "name": "addr",
          "type": "address"
        }
      ],
      "name": "updateSupplierPhase",
      "outputs": [],
      "stateMutability": "nonpayable",
      "type": "function"
    },
    {
      "inputs": [],
      "name": "getBuyerBalance",
      "outputs": [
        {
          "internalType": "uint256",
          "name": "",
          "type": "uint256"
        }
      ],
      "stateMutability": "view",
      "type": "function",
      "constant": true
    },
    {
      "inputs": [
        {
          "internalType": "uint256",
          "name": "idx",
          "type": "uint256"
        }
      ],
      "name": "initiatePayment",
      "outputs": [
        {
          "internalType": "bool",
          "name": "",
          "type": "bool"
        }
      ],
      "stateMutability": "payable",
      "type": "function",
      "payable": true
    },
    {
      "inputs": [
        {
          "internalType": "address",
          "name": "contractAddress",
          "type": "address"
        },
        {
          "internalType": "uint256",
          "name": "amount",
          "type": "uint256"
        }
      ],
      "name": "payInHETH",
      "outputs": [],
      "stateMutability": "payable",
      "type": "function",
      "payable": true
    },
    {
      "inputs": [
        {
          "internalType": "uint256",
          "name": "id",
          "type": "uint256"
        },
        {
          "internalType": "uint256",
          "name": "price",
          "type": "uint256"
        }
      ],
      "name": "raisePo",
      "outputs": [],
      "stateMutability": "nonpayable",
      "type": "function"
    }
  ],
  "bytecode": "0x60806040526040518060400160405280600881526020017f4574686f6c6f67790000000000000000000000000000000000000000000000008152506040518060400160405280600481526020017f4845544800000000000000000000000000000000000000000000000000000000815250816003908051906020019062000088929190620002ac565b508060049080519060200190620000a1929190620002ac565b50505033600760006101000a81548173ffffffffffffffffffffffffffffffffffffffff021916908373ffffffffffffffffffffffffffffffffffffffff16021790555062000123600760009054906101000a900473ffffffffffffffffffffffffffffffffffffffff1669d3c21bcecceda10000006200012960201b60201c565b62000508565b600073ffffffffffffffffffffffffffffffffffffffff168273ffffffffffffffffffffffffffffffffffffffff1614156200019c576040517f08c379a00000000000000000000000000000000000000000000000000000000081526004016200019390620003bd565b60405180910390fd5b620001b060008383620002a260201b60201c565b8060026000828254620001c4919062000418565b92505081905550806000808473ffffffffffffffffffffffffffffffffffffffff1673ffffffffffffffffffffffffffffffffffffffff16815260200190815260200160002060008282546200021b919062000418565b925050819055508173ffffffffffffffffffffffffffffffffffffffff16600073ffffffffffffffffffffffffffffffffffffffff167fddf252ad1be2c89b69c2b068fc378daa952ba7f163c4a11628f55a4df523b3ef8360405162000282919062000486565b60405180910390a36200029e60008383620002a760201b60201c565b5050565b505050565b505050565b828054620002ba90620004d2565b90600052602060002090601f016020900481019282620002de57600085556200032a565b82601f10620002f957805160ff19168380011785556200032a565b828001600101855582156200032a579182015b82811115620003295782518255916020019190600101906200030c565b5b5090506200033991906200033d565b5090565b5b80821115620003585760008160009055506001016200033e565b5090565b600082825260208201905092915050565b7f45524332303a206d696e7420746f20746865207a65726f206164647265737300600082015250565b6000620003a5601f836200035c565b9150620003b2826200036d565b602082019050919050565b60006020820190508181036000830152620003d88162000396565b9050919050565b6000819050919050565b7f4e487b7100000000000000000000000000000000000000000000000000000000600052601160045260246000fd5b60006200042582620003df565b91506200043283620003df565b9250827fffffffffffffffffffffffffffffffffffffffffffffffffffffffffffffffff038211156200046a5762000469620003e9565b5b828201905092915050565b6200048081620003df565b82525050565b60006020820190506200049d600083018462000475565b92915050565b7f4e487b7100000000000000000000000000000000000000000000000000000000600052602260045260246000fd5b60006002820490506001821680620004eb57607f821691505b60208210811415620005025762000501620004a3565b5b50919050565b6129d080620005186000396000f3fe60806040526004361061012a5760003560e01c8063603daf9a116100ab578063a2166c531161006f578063a2166c53146103fb578063a457c2d714610417578063a9059cbb14610454578063cf35f41e14610491578063d9978865146104bc578063dd62ed3e146104e75761012a565b8063603daf9a1461030f57806370a082311461033a57806376a0601b1461037757806378114d47146103a057806395d89b41146103d05761012a565b806323b872dd116100f257806323b872dd1461021857806327fbaa3114610255578063313ce5671461027e5780633353d59b146102a957806339509351146102d25761012a565b806306fdde031461012f578063095ea7b31461015a57806312065fe01461019757806318160ddd146101c257806323300ca4146101ed575b600080fd5b34801561013b57600080fd5b50610144610524565b6040516101519190611ab8565b60405180910390f35b34801561016657600080fd5b50610181600480360381019061017c9190611b73565b6105b6565b60405161018e9190611bce565b60405180910390f35b3480156101a357600080fd5b506101ac6105d9565b6040516101b99190611bf8565b60405180910390f35b3480156101ce57600080fd5b506101d76106b0565b6040516101e49190611bf8565b60405180910390f35b3480156101f957600080fd5b506102026106ba565b60405161020f9190611c22565b60405180910390f35b34801561022457600080fd5b5061023f600480360381019061023a9190611c3d565b6106e4565b60405161024c9190611bce565b60405180910390f35b34801561026157600080fd5b5061027c60048036038101906102779190611c90565b610713565b005b34801561028a57600080fd5b506102936108f3565b6040516102a09190611cec565b60405180910390f35b3480156102b557600080fd5b506102d060048036038101906102cb9190611d2c565b6108fc565b005b3480156102de57600080fd5b506102f960048036038101906102f49190611b73565b610ab1565b6040516103069190611bce565b60405180910390f35b34801561031b57600080fd5b50610324610ae8565b6040516103319190611c22565b60405180910390f35b34801561034657600080fd5b50610361600480360381019061035c9190611d7f565b610af0565b60405161036e9190611bf8565b60405180910390f35b34801561038357600080fd5b5061039e60048036038101906103999190611dd1565b610b38565b005b6103ba60048036038101906103b59190611e24565b610cec565b6040516103c79190611bce565b60405180910390f35b3480156103dc57600080fd5b506103e5610f19565b6040516103f29190611ab8565b60405180910390f35b61041560048036038101906104109190611b73565b610fab565b005b34801561042357600080fd5b5061043e60048036038101906104399190611b73565b61128e565b60405161044b9190611bce565b60405180910390f35b34801561046057600080fd5b5061047b60048036038101906104769190611b73565b611305565b6040516104889190611bce565b60405180910390f35b34801561049d57600080fd5b506104a6611328565b6040516104b39190612045565b60405180910390f35b3480156104c857600080fd5b506104d1611467565b6040516104de9190611bf8565b60405180910390f35b3480156104f357600080fd5b5061050e60048036038101906105099190612067565b6114ae565b60405161051b9190611bf8565b60405180910390f35b606060038054610533906120d6565b80601f016020809104026020016040519081016040528092919081815260200182805461055f906120d6565b80156105ac5780601f10610581576101008083540402835291602001916105ac565b820191906000526020600020905b81548152906001019060200180831161058f57829003601f168201915b5050505050905090565b6000806105c1611535565b90506105ce81858561153d565b600191505092915050565b6000600760009054906101000a900473ffffffffffffffffffffffffffffffffffffffff1673ffffffffffffffffffffffffffffffffffffffff163373ffffffffffffffffffffffffffffffffffffffff161461066b576040517f08c379a00000000000000000000000000000000000000000000000000000000081526004016106629061217a565b60405180910390fd5b600660003373ffffffffffffffffffffffffffffffffffffffff1673ffffffffffffffffffffffffffffffffffffffff16815260200190815260200160002054905090565b6000600254905090565b6000600760009054906101000a900473ffffffffffffffffffffffffffffffffffffffff16905090565b6000806106ef611535565b90506106fc858285611708565b610707858585611794565b60019150509392505050565b600760009054906101000a900473ffffffffffffffffffffffffffffffffffffffff1673ffffffffffffffffffffffffffffffffffffffff163373ffffffffffffffffffffffffffffffffffffffff1614156107a4576040517f08c379a000000000000000000000000000000000000000000000000000000000815260040161079b9061220c565b60405180910390fd5b60096040518060a00160405280600060028111156107c5576107c4611e7d565b5b8152602001600060028111156107de576107dd611e7d565b5b81526020018381526020018481526020013373ffffffffffffffffffffffffffffffffffffffff16815250908060018154018082558091505060019003906000526020600020906004020160009091909190915060008201518160000160006101000a81548160ff0219169083600281111561085d5761085c611e7d565b5b021790555060208201518160000160016101000a81548160ff0219169083600281111561088d5761088c611e7d565b5b0217905550604082015181600101556060820151816002015560808201518160030160006101000a81548173ffffffffffffffffffffffffffffffffffffffff021916908373ffffffffffffffffffffffffffffffffffffffff16021790555050505050565b60006012905090565b600760009054906101000a900473ffffffffffffffffffffffffffffffffffffffff1673ffffffffffffffffffffffffffffffffffffffff163373ffffffffffffffffffffffffffffffffffffffff16141561098d576040517f08c379a00000000000000000000000000000000000000000000000000000000081526004016109849061220c565b60405180910390fd5b60005b600980549050811015610aab5782600982815481106109b2576109b161222c565b5b906000526020600020906004020160020154148015610a4157508173ffffffffffffffffffffffffffffffffffffffff16600982815481106109f7576109f661222c565b5b906000526020600020906004020160030160009054906101000a900473ffffffffffffffffffffffffffffffffffffffff1673ffffffffffffffffffffffffffffffffffffffff16145b15610a98578360098281548110610a5b57610a5a61222c565b5b906000526020600020906004020160000160006101000a81548160ff02191690836002811115610a8e57610a8d611e7d565b5b0217905550610aab565b8080610aa39061228a565b915050610990565b50505050565b600080610abc611535565b9050610add818585610ace85896114ae565b610ad891906122d3565b61153d565b600191505092915050565b600033905090565b60008060008373ffffffffffffffffffffffffffffffffffffffff1673ffffffffffffffffffffffffffffffffffffffff168152602001908152602001600020549050919050565b600760009054906101000a900473ffffffffffffffffffffffffffffffffffffffff1673ffffffffffffffffffffffffffffffffffffffff163373ffffffffffffffffffffffffffffffffffffffff1614610bc8576040517f08c379a0000000000000000000000000000000000000000000000000000000008152600401610bbf9061217a565b60405180910390fd5b60005b600980549050811015610ce6578260098281548110610bed57610bec61222c565b5b906000526020600020906004020160020154148015610c7c57508173ffffffffffffffffffffffffffffffffffffffff1660098281548110610c3257610c3161222c565b5b906000526020600020906004020160030160009054906101000a900473ffffffffffffffffffffffffffffffffffffffff1673ffffffffffffffffffffffffffffffffffffffff16145b15610cd3578360098281548110610c9657610c9561222c565b5b906000526020600020906004020160000160016101000a81548160ff02191690836002811115610cc957610cc8611e7d565b5b0217905550610ce6565b8080610cde9061228a565b915050610bcb565b50505050565b6000600760009054906101000a900473ffffffffffffffffffffffffffffffffffffffff1673ffffffffffffffffffffffffffffffffffffffff163373ffffffffffffffffffffffffffffffffffffffff161415610d7f576040517f08c379a0000000000000000000000000000000000000000000000000000000008152600401610d769061220c565b60405180910390fd5b670de0b6b3a76400003411610dc9576040517f08c379a0000000000000000000000000000000000000000000000000000000008152600401610dc09061239b565b60405180910390fd5b3373ffffffffffffffffffffffffffffffffffffffff1631341015610e23576040517f08c379a0000000000000000000000000000000000000000000000000000000008152600401610e1a90612407565b60405180910390fd5b600060098381548110610e3957610e3861222c565b5b906000526020600020906004020160010154905080600660003073ffffffffffffffffffffffffffffffffffffffff1673ffffffffffffffffffffffffffffffffffffffff16815260200190815260200160002054610e989190612427565b60066000600760009054906101000a900473ffffffffffffffffffffffffffffffffffffffff1673ffffffffffffffffffffffffffffffffffffffff1673ffffffffffffffffffffffffffffffffffffffff1681526020019081526020016000206000828254610f0891906122d3565b925050819055506001915050919050565b606060048054610f28906120d6565b80601f0160208091040260200160405190810160405280929190818152602001828054610f54906120d6565b8015610fa15780601f10610f7657610100808354040283529160200191610fa1565b820191906000526020600020905b815481529060010190602001808311610f8457829003601f168201915b5050505050905090565b600760009054906101000a900473ffffffffffffffffffffffffffffffffffffffff1673ffffffffffffffffffffffffffffffffffffffff163373ffffffffffffffffffffffffffffffffffffffff16141561103c576040517f08c379a00000000000000000000000000000000000000000000000000000000081526004016110339061220c565b60405180910390fd5b6000829050818173ffffffffffffffffffffffffffffffffffffffff1663dd62ed3e33600760009054906101000a900473ffffffffffffffffffffffffffffffffffffffff166040518363ffffffff1660e01b815260040161109f92919061245b565b602060405180830381865afa1580156110bc573d6000803e3d6000fd5b505050506040513d601f19601f820116820180604052508101906110e09190612499565b1015611121576040517f08c379a000000000000000000000000000000000000000000000000000000000815260040161111890612407565b60405180910390fd5b8073ffffffffffffffffffffffffffffffffffffffff166323b872dd33600760009054906101000a900473ffffffffffffffffffffffffffffffffffffffff16856040518463ffffffff1660e01b8152600401611180939291906124c6565b6020604051808303816000875af115801561119f573d6000803e3d6000fd5b505050506040513d601f19601f820116820180604052508101906111c39190612529565b611202576040517f08c379a00000000000000000000000000000000000000000000000000000000081526004016111f9906125a2565b60405180910390fd5b600760009054906101000a900473ffffffffffffffffffffffffffffffffffffffff1673ffffffffffffffffffffffffffffffffffffffff163373ffffffffffffffffffffffffffffffffffffffff167fddf252ad1be2c89b69c2b068fc378daa952ba7f163c4a11628f55a4df523b3ef846040516112819190611bf8565b60405180910390a3505050565b600080611299611535565b905060006112a782866114ae565b9050838110156112ec576040517f08c379a00000000000000000000000000000000000000000000000000000000081526004016112e390612634565b60405180910390fd5b6112f9828686840361153d565b60019250505092915050565b600080611310611535565b905061131d818585611794565b600191505092915050565b60606009805480602002602001604051908101604052809291908181526020016000905b8282101561145e57838290600052602060002090600402016040518060a00160405290816000820160009054906101000a900460ff16600281111561139457611393611e7d565b5b60028111156113a6576113a5611e7d565b5b81526020016000820160019054906101000a900460ff1660028111156113cf576113ce611e7d565b5b60028111156113e1576113e0611e7d565b5b815260200160018201548152602001600282015481526020016003820160009054906101000a900473ffffffffffffffffffffffffffffffffffffffff1673ffffffffffffffffffffffffffffffffffffffff1673ffffffffffffffffffffffffffffffffffffffff16815250508152602001906001019061134c565b50505050905090565b6000600660003373ffffffffffffffffffffffffffffffffffffffff1673ffffffffffffffffffffffffffffffffffffffff16815260200190815260200160002054905090565b6000600160008473ffffffffffffffffffffffffffffffffffffffff1673ffffffffffffffffffffffffffffffffffffffff16815260200190815260200160002060008373ffffffffffffffffffffffffffffffffffffffff1673ffffffffffffffffffffffffffffffffffffffff16815260200190815260200160002054905092915050565b600033905090565b600073ffffffffffffffffffffffffffffffffffffffff168373ffffffffffffffffffffffffffffffffffffffff1614156115ad576040517f08c379a00000000000000000000000000000000000000000000000000000000081526004016115a4906126c6565b60405180910390fd5b600073ffffffffffffffffffffffffffffffffffffffff168273ffffffffffffffffffffffffffffffffffffffff16141561161d576040517f08c379a000000000000000000000000000000000000000000000000000000000815260040161161490612758565b60405180910390fd5b80600160008573ffffffffffffffffffffffffffffffffffffffff1673ffffffffffffffffffffffffffffffffffffffff16815260200190815260200160002060008473ffffffffffffffffffffffffffffffffffffffff1673ffffffffffffffffffffffffffffffffffffffff168152602001908152602001600020819055508173ffffffffffffffffffffffffffffffffffffffff168373ffffffffffffffffffffffffffffffffffffffff167f8c5be1e5ebec7d5bd14f71427d1e84f3dd0314c0f7b2291e5b200ac8c7c3b925836040516116fb9190611bf8565b60405180910390a3505050565b600061171484846114ae565b90507fffffffffffffffffffffffffffffffffffffffffffffffffffffffffffffffff811461178e5781811015611780576040517f08c379a0000000000000000000000000000000000000000000000000000000008152600401611777906127c4565b60405180910390fd5b61178d848484840361153d565b5b50505050565b600073ffffffffffffffffffffffffffffffffffffffff168373ffffffffffffffffffffffffffffffffffffffff161415611804576040517f08c379a00000000000000000000000000000000000000000000000000000000081526004016117fb90612856565b60405180910390fd5b600073ffffffffffffffffffffffffffffffffffffffff168273ffffffffffffffffffffffffffffffffffffffff161415611874576040517f08c379a000000000000000000000000000000000000000000000000000000000815260040161186b906128e8565b60405180910390fd5b61187f838383611a15565b60008060008573ffffffffffffffffffffffffffffffffffffffff1673ffffffffffffffffffffffffffffffffffffffff16815260200190815260200160002054905081811015611905576040517f08c379a00000000000000000000000000000000000000000000000000000000081526004016118fc9061297a565b60405180910390fd5b8181036000808673ffffffffffffffffffffffffffffffffffffffff1673ffffffffffffffffffffffffffffffffffffffff16815260200190815260200160002081905550816000808573ffffffffffffffffffffffffffffffffffffffff1673ffffffffffffffffffffffffffffffffffffffff168152602001908152602001600020600082825461199891906122d3565b925050819055508273ffffffffffffffffffffffffffffffffffffffff168473ffffffffffffffffffffffffffffffffffffffff167fddf252ad1be2c89b69c2b068fc378daa952ba7f163c4a11628f55a4df523b3ef846040516119fc9190611bf8565b60405180910390a3611a0f848484611a1a565b50505050565b505050565b505050565b600081519050919050565b600082825260208201905092915050565b60005b83811015611a59578082015181840152602081019050611a3e565b83811115611a68576000848401525b50505050565b6000601f19601f8301169050919050565b6000611a8a82611a1f565b611a948185611a2a565b9350611aa4818560208601611a3b565b611aad81611a6e565b840191505092915050565b60006020820190508181036000830152611ad28184611a7f565b905092915050565b600080fd5b600073ffffffffffffffffffffffffffffffffffffffff82169050919050565b6000611b0a82611adf565b9050919050565b611b1a81611aff565b8114611b2557600080fd5b50565b600081359050611b3781611b11565b92915050565b6000819050919050565b611b5081611b3d565b8114611b5b57600080fd5b50565b600081359050611b6d81611b47565b92915050565b60008060408385031215611b8a57611b89611ada565b5b6000611b9885828601611b28565b9250506020611ba985828601611b5e565b9150509250929050565b60008115159050919050565b611bc881611bb3565b82525050565b6000602082019050611be36000830184611bbf565b92915050565b611bf281611b3d565b82525050565b6000602082019050611c0d6000830184611be9565b92915050565b611c1c81611aff565b82525050565b6000602082019050611c376000830184611c13565b92915050565b600080600060608486031215611c5657611c55611ada565b5b6000611c6486828701611b28565b9350506020611c7586828701611b28565b9250506040611c8686828701611b5e565b9150509250925092565b60008060408385031215611ca757611ca6611ada565b5b6000611cb585828601611b5e565b9250506020611cc685828601611b5e565b9150509250929050565b600060ff82169050919050565b611ce681611cd0565b82525050565b6000602082019050611d016000830184611cdd565b92915050565b60038110611d1457600080fd5b50565b600081359050611d2681611d07565b92915050565b600080600060608486031215611d4557611d44611ada565b5b6000611d5386828701611d17565b9350506020611d6486828701611b5e565b9250506040611d7586828701611b28565b9150509250925092565b600060208284031215611d9557611d94611ada565b5b6000611da384828501611b28565b91505092915050565b60038110611db957600080fd5b50565b600081359050611dcb81611dac565b92915050565b600080600060608486031215611dea57611de9611ada565b5b6000611df886828701611dbc565b9350506020611e0986828701611b5e565b9250506040611e1a86828701611b28565b9150509250925092565b600060208284031215611e3a57611e39611ada565b5b6000611e4884828501611b5e565b91505092915050565b600081519050919050565b600082825260208201905092915050565b6000819050602082019050919050565b7f4e487b7100000000000000000000000000000000000000000000000000000000600052602160045260246000fd5b60038110611ebd57611ebc611e7d565b5b50565b6000819050611ece82611eac565b919050565b6000611ede82611ec0565b9050919050565b611eee81611ed3565b82525050565b60038110611f0557611f04611e7d565b5b50565b6000819050611f1682611ef4565b919050565b6000611f2682611f08565b9050919050565b611f3681611f1b565b82525050565b611f4581611b3d565b82525050565b611f5481611aff565b82525050565b60a082016000820151611f706000850182611ee5565b506020820151611f836020850182611f2d565b506040820151611f966040850182611f3c565b506060820151611fa96060850182611f3c565b506080820151611fbc6080850182611f4b565b50505050565b6000611fce8383611f5a565b60a08301905092915050565b6000602082019050919050565b6000611ff282611e51565b611ffc8185611e5c565b935061200783611e6d565b8060005b8381101561203857815161201f8882611fc2565b975061202a83611fda565b92505060018101905061200b565b5085935050505092915050565b6000602082019050818103600083015261205f8184611fe7565b905092915050565b6000806040838503121561207e5761207d611ada565b5b600061208c85828601611b28565b925050602061209d85828601611b28565b9150509250929050565b7f4e487b7100000000000000000000000000000000000000000000000000000000600052602260045260246000fd5b600060028204905060018216806120ee57607f821691505b60208210811415612102576121016120a7565b5b50919050565b7f4f6e6c792074686520737570706c6965722063616e2063616c6c20746869732060008201527f66756e6374696f6e000000000000000000000000000000000000000000000000602082015250565b6000612164602883611a2a565b915061216f82612108565b604082019050919050565b6000602082019050818103600083015261219381612157565b9050919050565b7f4f6e6c79207468652062757965722063616e2063616c6c20746869732066756e60008201527f6374696f6e000000000000000000000000000000000000000000000000000000602082015250565b60006121f6602583611a2a565b91506122018261219a565b604082019050919050565b60006020820190508181036000830152612225816121e9565b9050919050565b7f4e487b7100000000000000000000000000000000000000000000000000000000600052603260045260246000fd5b7f4e487b7100000000000000000000000000000000000000000000000000000000600052601160045260246000fd5b600061229582611b3d565b91507fffffffffffffffffffffffffffffffffffffffffffffffffffffffffffffffff8214156122c8576122c761225b565b5b600182019050919050565b60006122de82611b3d565b91506122e983611b3d565b9250827fffffffffffffffffffffffffffffffffffffffffffffffffffffffffffffffff0382111561231e5761231d61225b565b5b828201905092915050565b7f5061796d656e74206d7573742062652067726561746572207468616e2031206560008201527f7468657200000000000000000000000000000000000000000000000000000000602082015250565b6000612385602483611a2a565b915061239082612329565b604082019050919050565b600060208201905081810360008301526123b481612378565b9050919050565b7f496e73756666696369656e742062616c616e6365000000000000000000000000600082015250565b60006123f1601483611a2a565b91506123fc826123bb565b602082019050919050565b60006020820190508181036000830152612420816123e4565b9050919050565b600061243282611b3d565b915061243d83611b3d565b9250828210156124505761244f61225b565b5b828203905092915050565b60006040820190506124706000830185611c13565b61247d6020830184611c13565b9392505050565b60008151905061249381611b47565b92915050565b6000602082840312156124af576124ae611ada565b5b60006124bd84828501612484565b91505092915050565b60006060820190506124db6000830186611c13565b6124e86020830185611c13565b6124f56040830184611be9565b949350505050565b61250681611bb3565b811461251157600080fd5b50565b600081519050612523816124fd565b92915050565b60006020828403121561253f5761253e611ada565b5b600061254d84828501612514565b91505092915050565b7f48455448205472616e73666572206661696c6564000000000000000000000000600082015250565b600061258c601483611a2a565b915061259782612556565b602082019050919050565b600060208201905081810360008301526125bb8161257f565b9050919050565b7f45524332303a2064656372656173656420616c6c6f77616e63652062656c6f7760008201527f207a65726f000000000000000000000000000000000000000000000000000000602082015250565b600061261e602583611a2a565b9150612629826125c2565b604082019050919050565b6000602082019050818103600083015261264d81612611565b9050919050565b7f45524332303a20617070726f76652066726f6d20746865207a65726f2061646460008201527f7265737300000000000000000000000000000000000000000000000000000000602082015250565b60006126b0602483611a2a565b91506126bb82612654565b604082019050919050565b600060208201905081810360008301526126df816126a3565b9050919050565b7f45524332303a20617070726f766520746f20746865207a65726f20616464726560008201527f7373000000000000000000000000000000000000000000000000000000000000602082015250565b6000612742602283611a2a565b915061274d826126e6565b604082019050919050565b6000602082019050818103600083015261277181612735565b9050919050565b7f45524332303a20696e73756666696369656e7420616c6c6f77616e6365000000600082015250565b60006127ae601d83611a2a565b91506127b982612778565b602082019050919050565b600060208201905081810360008301526127dd816127a1565b9050919050565b7f45524332303a207472616e736665722066726f6d20746865207a65726f20616460008201527f6472657373000000000000000000000000000000000000000000000000000000602082015250565b6000612840602583611a2a565b915061284b826127e4565b604082019050919050565b6000602082019050818103600083015261286f81612833565b9050919050565b7f45524332303a207472616e7366657220746f20746865207a65726f206164647260008201527f6573730000000000000000000000000000000000000000000000000000000000602082015250565b60006128d2602383611a2a565b91506128dd82612876565b604082019050919050565b60006020820190508181036000830152612901816128c5565b9050919050565b7f45524332303a207472616e7366657220616d6f756e742065786365656473206260008201527f616c616e63650000000000000000000000000000000000000000000000000000602082015250565b6000612964602683611a2a565b915061296f82612908565b604082019050919050565b6000602082019050818103600083015261299381612957565b905091905056fea264697066735822122073a39f33fbb884f703778b27a5cd0d15a424dde5d853baf16eada800636c2d2064736f6c634300080c0033",
  "immutableReferences": {},
  "source": "// SPDX-License-Identifier: MIT\npragma solidity >=0.8.0 <=0.9.0;\nimport \"@openzeppelin/contracts/token/ERC20/ERC20.sol\";\n\n// contract for healthcare marketplace\ncontract Ethology is ERC20 {\n    // structs for representing the data\n    struct product {\n        uint256 id;\n        uint256 price;\n    }\n\n    enum buyerPhase {\n        RAISE_PO,\n        FREEZE_PO,\n        WITHDRAW_PO\n    }\n\n    enum supplierPhase {\n        INIT,\n        PROCURED,\n        DELIVERED\n    }\n\n    struct purchaseOrder {\n        buyerPhase buyerStatus;\n        supplierPhase supplierStatus;\n        uint256 price;\n        uint256 id;\n        address buyer;\n    }\n\n    struct balance {\n        address addr;\n        uint256 balance;\n    }\n\n    // map representing the products the client has ordered\n    mapping(address => purchaseOrder[]) poList;\n    mapping(address => uint256) balances;\n\n    // owner of the contract\n    address supplier;\n    uint256 buyerCount;\n    purchaseOrder[] buyerPO;\n\n    // constructor\n    constructor() payable ERC20(\"Ethology\", \"HETH\") {\n        supplier = msg.sender;\n        _mint(supplier, 1000000*10**18);\n        // payable(supplier).transfer(msg.value);\n    }\n\n    //  modifiers for restricted functions\n    modifier onlySupplier() {\n        require(\n            msg.sender == supplier,\n            \"Only the supplier can call this function\"\n        );\n        _;\n    }\n\n    modifier onlyBuyer() {\n        require(\n            msg.sender != supplier,\n            \"Only the buyer can call this function\"\n        );\n        _;\n    }\n\n    // utility functions\n    function getSupplier() public view returns (address) {\n        return supplier;\n    }\n\n    function getBuyer() public view returns (address) {\n        return msg.sender;\n    }\n\n    function getPOList() public view returns (purchaseOrder[] memory) {\n        return buyerPO;\n    }\n\n    function getBalance() public view onlySupplier returns (uint256) {\n        return balances[msg.sender];\n    }\n\n    function updateBuyerPhase(\n        buyerPhase phase,\n        uint256 id,\n        address addr\n    ) public onlyBuyer {\n        // loop over the buyerPO array\n        for (uint256 i = 0; i < buyerPO.length; i++) {\n            // if the id matches\n            if (buyerPO[i].id == id && buyerPO[i].buyer == addr) {\n                // update the phase\n                buyerPO[i].buyerStatus = phase;\n                break;\n            }\n        }\n    }\n\n    function updateSupplierPhase(\n        supplierPhase phase,\n        uint256 id,\n        address addr\n    ) public onlySupplier {\n        // loop over the buyerPO array\n        for (uint256 i = 0; i < buyerPO.length; i++) {\n            // if the id matches\n            if (buyerPO[i].id == id && buyerPO[i].buyer == addr) {\n                // update the phase\n                buyerPO[i].supplierStatus = phase;\n                break;\n            }\n        }\n    }\n\n    function getBuyerBalance() public view returns (uint256) {\n        return balances[msg.sender];\n    }\n\n    // function to pay to the supplier\n    function initiatePayment(uint256 idx)\n        public\n        payable\n        onlyBuyer\n        returns (bool)\n    {\n        require(msg.value > 1 ether, \"Payment must be greater than 1 ether\");\n        require(msg.value >= msg.sender.balance, \"Insufficient balance\");\n        // get the price\n        uint256 toPay = buyerPO[idx].price;\n        // add an assert as well\n        // send the ether to the supplier\n        balances[supplier] += balances[address(this)] - toPay;\n        return true;\n    }\n\n    // function for payment to the seller\n    function payInHETH(address contractAddress, uint256 amount) payable public onlyBuyer {\n        IERC20 token = IERC20(contractAddress);        \n        // check if the amount is greater than the balance\n        require(token.allowance(msg.sender, supplier) >= amount, \"Insufficient balance\");\n        // transfer the amount to the supplier\n        require(token.transferFrom(msg.sender, supplier, amount), \"HETH Transfer failed\");\n        // update the balance\n        emit Transfer(msg.sender, supplier, amount);\n    }\n\n    // initial function to raise the purchase order\n    function raisePo(uint256 id, uint256 price) public onlyBuyer {\n        buyerPO.push(\n            purchaseOrder({\n                buyerStatus: buyerPhase.RAISE_PO,\n                supplierStatus: supplierPhase.INIT,\n                price: price,\n                id: id,\n                buyer: msg.sender\n            })\n        );        \n    }\n}\n",
  "sourcePath": "/home/shreyans/UB/Blockchain/projects/ethology-app/src/blockchain/contracts/Ethology.sol",
  "compiler": {
    "name": "solc",
    "version": "0.8.12+commit.f00d7308.Emscripten.clang"
  },
  "schemaVersion": "3.4.6",
  "updatedAt": "2022-05-08T21:44:14.513Z",
  "networkType": "ethereum",
  "devdoc": {
    "kind": "dev",
    "methods": {
      "allowance(address,address)": {
        "details": "See {IERC20-allowance}."
      },
      "approve(address,uint256)": {
        "details": "See {IERC20-approve}. NOTE: If `amount` is the maximum `uint256`, the allowance is not updated on `transferFrom`. This is semantically equivalent to an infinite approval. Requirements: - `spender` cannot be the zero address."
      },
      "balanceOf(address)": {
        "details": "See {IERC20-balanceOf}."
      },
      "decimals()": {
        "details": "Returns the number of decimals used to get its user representation. For example, if `decimals` equals `2`, a balance of `505` tokens should be displayed to a user as `5.05` (`505 / 10 ** 2`). Tokens usually opt for a value of 18, imitating the relationship between Ether and Wei. This is the value {ERC20} uses, unless this function is overridden; NOTE: This information is only used for _display_ purposes: it in no way affects any of the arithmetic of the contract, including {IERC20-balanceOf} and {IERC20-transfer}."
      },
      "decreaseAllowance(address,uint256)": {
        "details": "Atomically decreases the allowance granted to `spender` by the caller. This is an alternative to {approve} that can be used as a mitigation for problems described in {IERC20-approve}. Emits an {Approval} event indicating the updated allowance. Requirements: - `spender` cannot be the zero address. - `spender` must have allowance for the caller of at least `subtractedValue`."
      },
      "increaseAllowance(address,uint256)": {
        "details": "Atomically increases the allowance granted to `spender` by the caller. This is an alternative to {approve} that can be used as a mitigation for problems described in {IERC20-approve}. Emits an {Approval} event indicating the updated allowance. Requirements: - `spender` cannot be the zero address."
      },
      "name()": {
        "details": "Returns the name of the token."
      },
      "symbol()": {
        "details": "Returns the symbol of the token, usually a shorter version of the name."
      },
      "totalSupply()": {
        "details": "See {IERC20-totalSupply}."
      },
      "transfer(address,uint256)": {
        "details": "See {IERC20-transfer}. Requirements: - `to` cannot be the zero address. - the caller must have a balance of at least `amount`."
      },
      "transferFrom(address,address,uint256)": {
        "details": "See {IERC20-transferFrom}. Emits an {Approval} event indicating the updated allowance. This is not required by the EIP. See the note at the beginning of {ERC20}. NOTE: Does not update the allowance if the current allowance is the maximum `uint256`. Requirements: - `from` and `to` cannot be the zero address. - `from` must have a balance of at least `amount`. - the caller must have allowance for ``from``'s tokens of at least `amount`."
      }
    },
    "version": 1
  },
  "userdoc": {
    "kind": "user",
    "methods": {},
    "version": 1
  }
}