{
  "contractName": "Ethology",
  "abi": [
    {
      "inputs": [],
      "stateMutability": "payable",
      "type": "constructor",
      "payable": true
    },
    {
      "inputs": [],
      "name": "getSupplier",
      "outputs": [
        {
          "internalType": "address",
          "name": "",
          "type": "address"
        }
      ],
      "stateMutability": "view",
      "type": "function",
      "constant": true
    },
    {
      "inputs": [],
      "name": "getBuyer",
      "outputs": [
        {
          "internalType": "address",
          "name": "",
          "type": "address"
        }
      ],
      "stateMutability": "view",
      "type": "function",
      "constant": true
    },
    {
      "inputs": [],
      "name": "getPOList",
      "outputs": [
        {
          "components": [
            {
              "internalType": "enum Ethology.buyerPhase",
              "name": "buyerStatus",
              "type": "uint8"
            },
            {
              "internalType": "enum Ethology.supplierPhase",
              "name": "supplierStatus",
              "type": "uint8"
            },
            {
              "internalType": "uint256",
              "name": "price",
              "type": "uint256"
            },
            {
              "internalType": "uint256",
              "name": "id",
              "type": "uint256"
            },
            {
              "internalType": "address",
              "name": "buyer",
              "type": "address"
            }
          ],
          "internalType": "struct Ethology.purchaseOrder[]",
          "name": "",
          "type": "tuple[]"
        }
      ],
      "stateMutability": "view",
      "type": "function",
      "constant": true
    },
    {
      "inputs": [],
      "name": "getBalance",
      "outputs": [
        {
          "internalType": "uint256",
          "name": "",
          "type": "uint256"
        }
      ],
      "stateMutability": "view",
      "type": "function",
      "constant": true
    },
    {
      "inputs": [
        {
          "internalType": "enum Ethology.buyerPhase",
          "name": "phase",
          "type": "uint8"
        },
        {
          "internalType": "uint256",
          "name": "id",
          "type": "uint256"
        },
        {
          "internalType": "address",
          "name": "addr",
          "type": "address"
        }
      ],
      "name": "updateBuyerPhase",
      "outputs": [],
      "stateMutability": "nonpayable",
      "type": "function"
    },
    {
      "inputs": [
        {
          "internalType": "enum Ethology.supplierPhase",
          "name": "phase",
          "type": "uint8"
        },
        {
          "internalType": "uint256",
          "name": "id",
          "type": "uint256"
        },
        {
          "internalType": "address",
          "name": "addr",
          "type": "address"
        }
      ],
      "name": "updateSupplierPhase",
      "outputs": [],
      "stateMutability": "nonpayable",
      "type": "function"
    },
    {
      "inputs": [],
      "name": "getBuyerBalance",
      "outputs": [
        {
          "internalType": "uint256",
          "name": "",
          "type": "uint256"
        }
      ],
      "stateMutability": "view",
      "type": "function",
      "constant": true
    },
    {
      "inputs": [
        {
          "internalType": "uint256",
          "name": "idx",
          "type": "uint256"
        }
      ],
      "name": "initiatePayment",
      "outputs": [
        {
          "internalType": "bool",
          "name": "",
          "type": "bool"
        }
      ],
      "stateMutability": "payable",
      "type": "function",
      "payable": true
    },
    {
      "inputs": [
        {
          "internalType": "uint256",
          "name": "id",
          "type": "uint256"
        },
        {
          "internalType": "uint256",
          "name": "price",
          "type": "uint256"
        }
      ],
      "name": "raisePo",
      "outputs": [],
      "stateMutability": "nonpayable",
      "type": "function"
    }
  ],
  "bytecode": "0x608060405233600260006101000a81548173ffffffffffffffffffffffffffffffffffffffff021916908373ffffffffffffffffffffffffffffffffffffffff160217905550600260009054906101000a900473ffffffffffffffffffffffffffffffffffffffff1673ffffffffffffffffffffffffffffffffffffffff166108fc349081150290604051600060405180830381858888f193505050501580156100ad573d6000803e3d6000fd5b50611487806100bd6000396000f3fe6080604052600436106100865760003560e01c8063603daf9a11610059578063603daf9a1461013357806376a0601b1461015e57806378114d4714610187578063cf35f41e146101b7578063d9978865146101e257610086565b806312065fe01461008b57806323300ca4146100b657806327fbaa31146100e15780633353d59b1461010a575b600080fd5b34801561009757600080fd5b506100a061020d565b6040516100ad9190610c70565b60405180910390f35b3480156100c257600080fd5b506100cb6102e4565b6040516100d89190610ccc565b60405180910390f35b3480156100ed57600080fd5b5061010860048036038101906101039190610d18565b61030e565b005b34801561011657600080fd5b50610131600480360381019061012c9190610da9565b610533565b005b34801561013f57600080fd5b506101486106e8565b6040516101559190610ccc565b60405180910390f35b34801561016a57600080fd5b5061018560048036038101906101809190610e21565b6106f0565b005b6101a1600480360381019061019c9190610e74565b6108a4565b6040516101ae9190610ebc565b60405180910390f35b3480156101c357600080fd5b506101cc610ad1565b6040516101d991906110cb565b60405180910390f35b3480156101ee57600080fd5b506101f7610c10565b6040516102049190610c70565b60405180910390f35b6000600260009054906101000a900473ffffffffffffffffffffffffffffffffffffffff1673ffffffffffffffffffffffffffffffffffffffff163373ffffffffffffffffffffffffffffffffffffffff161461029f576040517f08c379a000000000000000000000000000000000000000000000000000000000815260040161029690611170565b60405180910390fd5b600160003373ffffffffffffffffffffffffffffffffffffffff1673ffffffffffffffffffffffffffffffffffffffff16815260200190815260200160002054905090565b6000600260009054906101000a900473ffffffffffffffffffffffffffffffffffffffff16905090565b600260009054906101000a900473ffffffffffffffffffffffffffffffffffffffff1673ffffffffffffffffffffffffffffffffffffffff163373ffffffffffffffffffffffffffffffffffffffff16141561039f576040517f08c379a000000000000000000000000000000000000000000000000000000000815260040161039690611202565b60405180910390fd5b60046040518060a00160405280600060028111156103c0576103bf610f03565b5b8152602001600060028111156103d9576103d8610f03565b5b81526020018381526020018481526020013373ffffffffffffffffffffffffffffffffffffffff16815250908060018154018082558091505060019003906000526020600020906004020160009091909190915060008201518160000160006101000a81548160ff0219169083600281111561045857610457610f03565b5b021790555060208201518160000160016101000a81548160ff0219169083600281111561048857610487610f03565b5b0217905550604082015181600101556060820151816002015560808201518160030160006101000a81548173ffffffffffffffffffffffffffffffffffffffff021916908373ffffffffffffffffffffffffffffffffffffffff16021790555050506065600160003373ffffffffffffffffffffffffffffffffffffffff1673ffffffffffffffffffffffffffffffffffffffff168152602001908152602001600020819055505050565b600260009054906101000a900473ffffffffffffffffffffffffffffffffffffffff1673ffffffffffffffffffffffffffffffffffffffff163373ffffffffffffffffffffffffffffffffffffffff1614156105c4576040517f08c379a00000000000000000000000000000000000000000000000000000000081526004016105bb90611202565b60405180910390fd5b60005b6004805490508110156106e25782600482815481106105e9576105e8611222565b5b90600052602060002090600402016002015414801561067857508173ffffffffffffffffffffffffffffffffffffffff166004828154811061062e5761062d611222565b5b906000526020600020906004020160030160009054906101000a900473ffffffffffffffffffffffffffffffffffffffff1673ffffffffffffffffffffffffffffffffffffffff16145b156106cf57836004828154811061069257610691611222565b5b906000526020600020906004020160000160006101000a81548160ff021916908360028111156106c5576106c4610f03565b5b02179055506106e2565b80806106da90611280565b9150506105c7565b50505050565b600033905090565b600260009054906101000a900473ffffffffffffffffffffffffffffffffffffffff1673ffffffffffffffffffffffffffffffffffffffff163373ffffffffffffffffffffffffffffffffffffffff1614610780576040517f08c379a000000000000000000000000000000000000000000000000000000000815260040161077790611170565b60405180910390fd5b60005b60048054905081101561089e5782600482815481106107a5576107a4611222565b5b90600052602060002090600402016002015414801561083457508173ffffffffffffffffffffffffffffffffffffffff16600482815481106107ea576107e9611222565b5b906000526020600020906004020160030160009054906101000a900473ffffffffffffffffffffffffffffffffffffffff1673ffffffffffffffffffffffffffffffffffffffff16145b1561088b57836004828154811061084e5761084d611222565b5b906000526020600020906004020160000160016101000a81548160ff0219169083600281111561088157610880610f03565b5b021790555061089e565b808061089690611280565b915050610783565b50505050565b6000600260009054906101000a900473ffffffffffffffffffffffffffffffffffffffff1673ffffffffffffffffffffffffffffffffffffffff163373ffffffffffffffffffffffffffffffffffffffff161415610937576040517f08c379a000000000000000000000000000000000000000000000000000000000815260040161092e90611202565b60405180910390fd5b670de0b6b3a76400003411610981576040517f08c379a00000000000000000000000000000000000000000000000000000000081526004016109789061133b565b60405180910390fd5b3373ffffffffffffffffffffffffffffffffffffffff16313410156109db576040517f08c379a00000000000000000000000000000000000000000000000000000000081526004016109d2906113a7565b60405180910390fd5b6000600483815481106109f1576109f0611222565b5b906000526020600020906004020160010154905080600160003073ffffffffffffffffffffffffffffffffffffffff1673ffffffffffffffffffffffffffffffffffffffff16815260200190815260200160002054610a5091906113c7565b60016000600260009054906101000a900473ffffffffffffffffffffffffffffffffffffffff1673ffffffffffffffffffffffffffffffffffffffff1673ffffffffffffffffffffffffffffffffffffffff1681526020019081526020016000206000828254610ac091906113fb565b925050819055506001915050919050565b60606004805480602002602001604051908101604052809291908181526020016000905b82821015610c0757838290600052602060002090600402016040518060a00160405290816000820160009054906101000a900460ff166002811115610b3d57610b3c610f03565b5b6002811115610b4f57610b4e610f03565b5b81526020016000820160019054906101000a900460ff166002811115610b7857610b77610f03565b5b6002811115610b8a57610b89610f03565b5b815260200160018201548152602001600282015481526020016003820160009054906101000a900473ffffffffffffffffffffffffffffffffffffffff1673ffffffffffffffffffffffffffffffffffffffff1673ffffffffffffffffffffffffffffffffffffffff168152505081526020019060010190610af5565b50505050905090565b6000600160003373ffffffffffffffffffffffffffffffffffffffff1673ffffffffffffffffffffffffffffffffffffffff16815260200190815260200160002054905090565b6000819050919050565b610c6a81610c57565b82525050565b6000602082019050610c856000830184610c61565b92915050565b600073ffffffffffffffffffffffffffffffffffffffff82169050919050565b6000610cb682610c8b565b9050919050565b610cc681610cab565b82525050565b6000602082019050610ce16000830184610cbd565b92915050565b600080fd5b610cf581610c57565b8114610d0057600080fd5b50565b600081359050610d1281610cec565b92915050565b60008060408385031215610d2f57610d2e610ce7565b5b6000610d3d85828601610d03565b9250506020610d4e85828601610d03565b9150509250929050565b60038110610d6557600080fd5b50565b600081359050610d7781610d58565b92915050565b610d8681610cab565b8114610d9157600080fd5b50565b600081359050610da381610d7d565b92915050565b600080600060608486031215610dc257610dc1610ce7565b5b6000610dd086828701610d68565b9350506020610de186828701610d03565b9250506040610df286828701610d94565b9150509250925092565b60038110610e0957600080fd5b50565b600081359050610e1b81610dfc565b92915050565b600080600060608486031215610e3a57610e39610ce7565b5b6000610e4886828701610e0c565b9350506020610e5986828701610d03565b9250506040610e6a86828701610d94565b9150509250925092565b600060208284031215610e8a57610e89610ce7565b5b6000610e9884828501610d03565b91505092915050565b60008115159050919050565b610eb681610ea1565b82525050565b6000602082019050610ed16000830184610ead565b92915050565b600081519050919050565b600082825260208201905092915050565b6000819050602082019050919050565b7f4e487b7100000000000000000000000000000000000000000000000000000000600052602160045260246000fd5b60038110610f4357610f42610f03565b5b50565b6000819050610f5482610f32565b919050565b6000610f6482610f46565b9050919050565b610f7481610f59565b82525050565b60038110610f8b57610f8a610f03565b5b50565b6000819050610f9c82610f7a565b919050565b6000610fac82610f8e565b9050919050565b610fbc81610fa1565b82525050565b610fcb81610c57565b82525050565b610fda81610cab565b82525050565b60a082016000820151610ff66000850182610f6b565b5060208201516110096020850182610fb3565b50604082015161101c6040850182610fc2565b50606082015161102f6060850182610fc2565b5060808201516110426080850182610fd1565b50505050565b60006110548383610fe0565b60a08301905092915050565b6000602082019050919050565b600061107882610ed7565b6110828185610ee2565b935061108d83610ef3565b8060005b838110156110be5781516110a58882611048565b97506110b083611060565b925050600181019050611091565b5085935050505092915050565b600060208201905081810360008301526110e5818461106d565b905092915050565b600082825260208201905092915050565b7f4f6e6c792074686520737570706c6965722063616e2063616c6c20746869732060008201527f66756e6374696f6e000000000000000000000000000000000000000000000000602082015250565b600061115a6028836110ed565b9150611165826110fe565b604082019050919050565b600060208201905081810360008301526111898161114d565b9050919050565b7f4f6e6c79207468652062757965722063616e2063616c6c20746869732066756e60008201527f6374696f6e000000000000000000000000000000000000000000000000000000602082015250565b60006111ec6025836110ed565b91506111f782611190565b604082019050919050565b6000602082019050818103600083015261121b816111df565b9050919050565b7f4e487b7100000000000000000000000000000000000000000000000000000000600052603260045260246000fd5b7f4e487b7100000000000000000000000000000000000000000000000000000000600052601160045260246000fd5b600061128b82610c57565b91507fffffffffffffffffffffffffffffffffffffffffffffffffffffffffffffffff8214156112be576112bd611251565b5b600182019050919050565b7f5061796d656e74206d7573742062652067726561746572207468616e2031206560008201527f7468657200000000000000000000000000000000000000000000000000000000602082015250565b60006113256024836110ed565b9150611330826112c9565b604082019050919050565b6000602082019050818103600083015261135481611318565b9050919050565b7f496e73756666696369656e742062616c616e6365000000000000000000000000600082015250565b60006113916014836110ed565b915061139c8261135b565b602082019050919050565b600060208201905081810360008301526113c081611384565b9050919050565b60006113d282610c57565b91506113dd83610c57565b9250828210156113f0576113ef611251565b5b828203905092915050565b600061140682610c57565b915061141183610c57565b9250827fffffffffffffffffffffffffffffffffffffffffffffffffffffffffffffffff0382111561144657611445611251565b5b82820190509291505056fea2646970667358221220f60e734832c7a274dab3c2f84d421c4237f4dceaf5a74786e92660c4103492fb64736f6c634300080c0033",
  "immutableReferences": {},
  "source": "// SPDX-License-Identifier: MIT\npragma solidity >=0.8.0 <=0.9.0;\n\n// contract for healthcare marketplace\ncontract Ethology {\n    // structs for representing the data\n    struct product {\n        uint256 id;\n        uint256 price;\n    }\n\n    enum buyerPhase {\n        RAISE_PO,\n        FREEZE_PO,\n        WITHDRAW_PO\n    }\n\n    enum supplierPhase {\n        INIT,\n        PROCURED,\n        DELIVERED\n    }\n\n    struct purchaseOrder {\n        buyerPhase buyerStatus;\n        supplierPhase supplierStatus;\n        uint256 price;\n        uint256 id;\n        address buyer;\n    }\n\n    struct balance {\n        address addr;\n        uint256 balance;\n    }\n\n    // map representing the products the client has ordered\n    mapping(address => purchaseOrder[]) poList;\n    mapping(address => uint256) balances;\n\n    // owner of the contract\n    address supplier;\n    uint256 buyerCount;\n    purchaseOrder[] buyerPO;\n\n    // constructor\n    constructor() payable {\n        supplier = msg.sender;\n        payable(supplier).transfer(msg.value);\n    }\n\n    //  modifiers for restricted functions\n    modifier onlySupplier() {\n        require(\n            msg.sender == supplier,\n            \"Only the supplier can call this function\"\n        );\n        _;\n    }\n\n    modifier onlyBuyer() {\n        require(\n            msg.sender != supplier,\n            \"Only the buyer can call this function\"\n        );\n        _;\n    }\n\n    // utility functions\n    function getSupplier() public view returns (address) {\n        return supplier;\n    }\n\n    function getBuyer() public view returns (address) {\n        return msg.sender;\n    }\n\n    function getPOList() public view returns (purchaseOrder[] memory) {\n        return buyerPO;\n    }\n\n    function getBalance() public view onlySupplier returns (uint256) {\n        return balances[msg.sender];\n    }\n\n    function updateBuyerPhase(\n        buyerPhase phase,\n        uint256 id,\n        address addr\n    ) public onlyBuyer {\n        // loop over the buyerPO array\n        for (uint256 i = 0; i < buyerPO.length; i++) {\n            // if the id matches\n            if (buyerPO[i].id == id && buyerPO[i].buyer == addr) {\n                // update the phase\n                buyerPO[i].buyerStatus = phase;\n                break;\n            }\n        }\n    }\n\n    function updateSupplierPhase(\n        supplierPhase phase,\n        uint256 id,\n        address addr\n    ) public onlySupplier {\n        // loop over the buyerPO array\n        for (uint256 i = 0; i < buyerPO.length; i++) {\n            // if the id matches\n            if (buyerPO[i].id == id && buyerPO[i].buyer == addr) {\n                // update the phase\n                buyerPO[i].supplierStatus = phase;\n                break;\n            }\n        }\n    }\n\n    function getBuyerBalance() public view returns (uint256) {\n        return balances[msg.sender];\n    }\n\n    // function to pay to the supplier\n    function initiatePayment(uint256 idx)\n        public\n        payable\n        onlyBuyer\n        returns (bool)\n    {\n        require(msg.value > 1 ether, \"Payment must be greater than 1 ether\");\n        require(msg.value >= msg.sender.balance, \"Insufficient balance\");\n        // get the price\n        uint256 toPay = buyerPO[idx].price;\n        // add an assert as well\n        // send the ether to the supplier\n        balances[supplier] += balances[address(this)] - toPay;\n        return true;\n    }\n\n    // initial function to raise the purchase order\n    function raisePo(uint256 id, uint256 price) public onlyBuyer {\n        buyerPO.push(\n            purchaseOrder({\n                buyerStatus: buyerPhase.RAISE_PO,\n                supplierStatus: supplierPhase.INIT,\n                price: price,\n                id: id,\n                buyer: msg.sender\n            })\n        );\n\n        // update the balance too\n        balances[msg.sender] = 101;\n    }\n}\n",
  "sourcePath": "/home/shreyans/UB/Blockchain/projects/ethology-app/src/blockchain/contracts/Ethology.sol",
  "compiler": {
    "name": "solc",
    "version": "0.8.12+commit.f00d7308.Emscripten.clang"
  },
  "schemaVersion": "3.4.6",
  "updatedAt": "2022-04-17T20:58:38.469Z",
  "networkType": "ethereum",
  "devdoc": {
    "kind": "dev",
    "methods": {},
    "version": 1
  },
  "userdoc": {
    "kind": "user",
    "methods": {},
    "version": 1
  }
}