{
  "contractName": "Ethology",
  "abi": [
    {
      "inputs": [],
      "stateMutability": "nonpayable",
      "type": "constructor"
    },
    {
      "inputs": [
        {
          "internalType": "address",
          "name": "",
          "type": "address"
        },
        {
          "internalType": "uint256",
          "name": "",
          "type": "uint256"
        }
      ],
      "name": "customerPOList",
      "outputs": [
        {
          "internalType": "uint256",
          "name": "cost",
          "type": "uint256"
        },
        {
          "internalType": "uint256",
          "name": "productId",
          "type": "uint256"
        },
        {
          "internalType": "uint256",
          "name": "productCount",
          "type": "uint256"
        }
      ],
      "stateMutability": "view",
      "type": "function",
      "constant": true
    },
    {
      "inputs": [],
      "name": "owner",
      "outputs": [
        {
          "internalType": "address",
          "name": "",
          "type": "address"
        }
      ],
      "stateMutability": "view",
      "type": "function",
      "constant": true
    },
    {
      "inputs": [],
      "name": "phase",
      "outputs": [
        {
          "internalType": "enum Ethology.Phase",
          "name": "",
          "type": "uint8"
        }
      ],
      "stateMutability": "view",
      "type": "function",
      "constant": true
    },
    {
      "inputs": [],
      "name": "getCurrentPhase",
      "outputs": [
        {
          "internalType": "enum Ethology.Phase",
          "name": "",
          "type": "uint8"
        }
      ],
      "stateMutability": "view",
      "type": "function",
      "constant": true
    },
    {
      "inputs": [
        {
          "internalType": "enum Ethology.Phase",
          "name": "newPhase",
          "type": "uint8"
        }
      ],
      "name": "updatePhase",
      "outputs": [],
      "stateMutability": "nonpayable",
      "type": "function"
    },
    {
      "inputs": [
        {
          "internalType": "uint256",
          "name": "productId",
          "type": "uint256"
        },
        {
          "internalType": "uint256",
          "name": "productCount",
          "type": "uint256"
        },
        {
          "internalType": "uint256",
          "name": "cost",
          "type": "uint256"
        }
      ],
      "name": "addProduct",
      "outputs": [],
      "stateMutability": "nonpayable",
      "type": "function"
    },
    {
      "inputs": [
        {
          "internalType": "uint256",
          "name": "productId",
          "type": "uint256"
        }
      ],
      "name": "getProduct",
      "outputs": [
        {
          "internalType": "uint256",
          "name": "cost",
          "type": "uint256"
        },
        {
          "internalType": "uint256",
          "name": "productCount",
          "type": "uint256"
        }
      ],
      "stateMutability": "view",
      "type": "function",
      "constant": true
    }
  ],
  "bytecode": "0x608060405260008060146101000a81548160ff0219169083600381111561002957610028610080565b5b021790555034801561003a57600080fd5b50336000806101000a81548173ffffffffffffffffffffffffffffffffffffffff021916908373ffffffffffffffffffffffffffffffffffffffff1602179055506100af565b7f4e487b7100000000000000000000000000000000000000000000000000000000600052602160045260246000fd5b610950806100be6000396000f3fe608060405234801561001057600080fd5b506004361061007d5760003560e01c8063a3a40ea51161005b578063a3a40ea5146100ee578063b1c9fe6e1461010c578063b9db15b41461012a578063cf3d8e531461015b5761007d565b8063303778a9146100825780638da5cb5b146100b45780639937b38f146100d2575b600080fd5b61009c600480360381019061009791906105b9565b610177565b6040516100ab93929190610608565b60405180910390f35b6100bc6101be565b6040516100c9919061064e565b60405180910390f35b6100ec60048036038101906100e79190610669565b6101e2565b005b6100f6610290565b6040516101039190610733565b60405180910390f35b6101146102a6565b6040516101219190610733565b60405180910390f35b610144600480360381019061013f919061074e565b6102b9565b60405161015292919061077b565b60405180910390f35b610175600480360381019061017091906107c9565b610465565b005b6001602052816000526040600020818154811061019357600080fd5b9060005260206000209060030201600091509150508060000154908060010154908060020154905083565b60008054906101000a900473ffffffffffffffffffffffffffffffffffffffff1681565b60006040518060600160405280838152602001858152602001848152509050600160003373ffffffffffffffffffffffffffffffffffffffff1673ffffffffffffffffffffffffffffffffffffffff168152602001908152602001600020819080600181540180825580915050600190039060005260206000209060030201600090919091909150600082015181600001556020820151816001015560408201518160020155505050505050565b60008060149054906101000a900460ff16905090565b600060149054906101000a900460ff1681565b60008060005b600160003373ffffffffffffffffffffffffffffffffffffffff1673ffffffffffffffffffffffffffffffffffffffff168152602001908152602001600020805490508110156104565783600160003373ffffffffffffffffffffffffffffffffffffffff1673ffffffffffffffffffffffffffffffffffffffff168152602001908152602001600020828154811061035b5761035a6107f6565b5b906000526020600020906003020160010154141561044357600160003373ffffffffffffffffffffffffffffffffffffffff1673ffffffffffffffffffffffffffffffffffffffff16815260200190815260200160002081815481106103c4576103c36107f6565b5b9060005260206000209060030201600001549250600160003373ffffffffffffffffffffffffffffffffffffffff1673ffffffffffffffffffffffffffffffffffffffff1681526020019081526020016000208181548110610429576104286107f6565b5b906000526020600020906003020160020154915050610460565b808061044e90610854565b9150506102bf565b5060009150600090505b915091565b60008054906101000a900473ffffffffffffffffffffffffffffffffffffffff1673ffffffffffffffffffffffffffffffffffffffff163373ffffffffffffffffffffffffffffffffffffffff16146104f3576040517f08c379a00000000000000000000000000000000000000000000000000000000081526004016104ea906108fa565b60405180910390fd5b80600060146101000a81548160ff02191690836003811115610518576105176106bc565b5b021790555050565b600080fd5b600073ffffffffffffffffffffffffffffffffffffffff82169050919050565b600061055082610525565b9050919050565b61056081610545565b811461056b57600080fd5b50565b60008135905061057d81610557565b92915050565b6000819050919050565b61059681610583565b81146105a157600080fd5b50565b6000813590506105b38161058d565b92915050565b600080604083850312156105d0576105cf610520565b5b60006105de8582860161056e565b92505060206105ef858286016105a4565b9150509250929050565b61060281610583565b82525050565b600060608201905061061d60008301866105f9565b61062a60208301856105f9565b61063760408301846105f9565b949350505050565b61064881610545565b82525050565b6000602082019050610663600083018461063f565b92915050565b60008060006060848603121561068257610681610520565b5b6000610690868287016105a4565b93505060206106a1868287016105a4565b92505060406106b2868287016105a4565b9150509250925092565b7f4e487b7100000000000000000000000000000000000000000000000000000000600052602160045260246000fd5b600481106106fc576106fb6106bc565b5b50565b600081905061070d826106eb565b919050565b600061071d826106ff565b9050919050565b61072d81610712565b82525050565b60006020820190506107486000830184610724565b92915050565b60006020828403121561076457610763610520565b5b6000610772848285016105a4565b91505092915050565b600060408201905061079060008301856105f9565b61079d60208301846105f9565b9392505050565b600481106107b157600080fd5b50565b6000813590506107c3816107a4565b92915050565b6000602082840312156107df576107de610520565b5b60006107ed848285016107b4565b91505092915050565b7f4e487b7100000000000000000000000000000000000000000000000000000000600052603260045260246000fd5b7f4e487b7100000000000000000000000000000000000000000000000000000000600052601160045260246000fd5b600061085f82610583565b91507fffffffffffffffffffffffffffffffffffffffffffffffffffffffffffffffff82141561089257610891610825565b5b600182019050919050565b600082825260208201905092915050565b7f4f6e6c79206f776e65722063616e207570646174652070686173650000000000600082015250565b60006108e4601b8361089d565b91506108ef826108ae565b602082019050919050565b60006020820190508181036000830152610913816108d7565b905091905056fea26469706673582212208c88457eced1b2dd511e54ff1d0afb47c0de98fe6676b913a88bb4aee252ba2264736f6c634300080c0033",
  "immutableReferences": {},
  "source": "// SPDX-License-Identifier: MIT\npragma solidity >=0.4.22 <0.9.0;\n\n// contract for healthcare marketplace\ncontract Ethology {\n    address public owner;\n\n    struct product {\n        uint256 cost;\n        uint256 productId;\n        uint256 productCount;\n    }\n\n    enum Phase {\n        Init,\n        Stocking,\n        Stocked,\n        Completed\n    }\n\n    Phase public phase = Phase.Init;\n\n    mapping(address => product[]) public customerPOList;\n\n    function getCurrentPhase() public view returns (Phase) {\n        return phase;\n    }\n\n    function updatePhase(Phase newPhase) public {\n        if (msg.sender != owner) {\n            revert(\"Only owner can update phase\");\n        }\n        phase = newPhase;\n    }\n\n    constructor() public {\n        owner = msg.sender;\n    }\n\n    function addProduct(\n        uint256 productId,\n        uint256 productCount,\n        uint256 cost\n    ) public {\n        product memory newProduct = product(cost, productId, productCount);\n        customerPOList[msg.sender].push(newProduct);\n    }\n\n    function getProduct(uint256 productId)\n        public\n        view\n        returns (uint256 cost, uint256 productCount)\n    {\n        for (uint256 i = 0; i < customerPOList[msg.sender].length; i++) {\n            if (customerPOList[msg.sender][i].productId == productId) {\n                cost = customerPOList[msg.sender][i].cost;\n                productCount = customerPOList[msg.sender][i].productCount;\n                return (cost, productCount);\n            }\n        }\n        cost = 0;\n        productCount = 0;\n    }\n}\n",
  "sourcePath": "/home/shreyans/UB/Blockchain/projects/ethology-app/src/blockchain/contracts/Ethology.sol",
  "compiler": {
    "name": "solc",
    "version": "0.8.12+commit.f00d7308.Emscripten.clang"
  },
  "schemaVersion": "3.4.6",
  "updatedAt": "2022-04-14T05:14:57.840Z",
  "networkType": "ethereum",
  "devdoc": {
    "kind": "dev",
    "methods": {},
    "version": 1
  },
  "userdoc": {
    "kind": "user",
    "methods": {},
    "version": 1
  }
}