{
  "contractName": "Ethology",
  "abi": [
    {
      "inputs": [],
      "stateMutability": "nonpayable",
      "type": "constructor"
    },
    {
      "inputs": [],
      "name": "getSupplier",
      "outputs": [
        {
          "internalType": "address",
          "name": "",
          "type": "address"
        }
      ],
      "stateMutability": "view",
      "type": "function",
      "constant": true
    },
    {
      "inputs": [],
      "name": "getBuyer",
      "outputs": [
        {
          "internalType": "address",
          "name": "",
          "type": "address"
        }
      ],
      "stateMutability": "view",
      "type": "function",
      "constant": true
    },
    {
      "inputs": [],
      "name": "getPOList",
      "outputs": [
        {
          "components": [
            {
              "internalType": "enum Ethology.buyerPhase",
              "name": "buyerStatus",
              "type": "uint8"
            },
            {
              "internalType": "enum Ethology.supplierPhase",
              "name": "supplierStatus",
              "type": "uint8"
            },
            {
              "internalType": "uint256",
              "name": "price",
              "type": "uint256"
            },
            {
              "internalType": "uint256",
              "name": "id",
              "type": "uint256"
            },
            {
              "internalType": "address",
              "name": "buyer",
              "type": "address"
            }
          ],
          "internalType": "struct Ethology.purchaseOrder[]",
          "name": "",
          "type": "tuple[]"
        }
      ],
      "stateMutability": "view",
      "type": "function",
      "constant": true
    },
    {
      "inputs": [
        {
          "internalType": "uint256",
          "name": "id",
          "type": "uint256"
        },
        {
          "internalType": "uint256",
          "name": "price",
          "type": "uint256"
        }
      ],
      "name": "raisePo",
      "outputs": [],
      "stateMutability": "nonpayable",
      "type": "function"
    }
  ],
  "bytecode": "0x608060405234801561001057600080fd5b5033600160006101000a81548173ffffffffffffffffffffffffffffffffffffffff021916908373ffffffffffffffffffffffffffffffffffffffff16021790555033600260006101000a81548173ffffffffffffffffffffffffffffffffffffffff021916908373ffffffffffffffffffffffffffffffffffffffff1602179055506107de806100a26000396000f3fe608060405234801561001057600080fd5b506004361061004c5760003560e01c806323300ca41461005157806327fbaa311461006f578063603daf9a1461008b578063cf35f41e146100a9575b600080fd5b6100596100c7565b6040516100669190610459565b60405180910390f35b610089600480360381019061008491906104af565b6100f1565b005b6100936102d1565b6040516100a09190610459565b60405180910390f35b6100b16102d9565b6040516100be91906106e3565b60405180910390f35b6000600160009054906101000a900473ffffffffffffffffffffffffffffffffffffffff16905090565b600160009054906101000a900473ffffffffffffffffffffffffffffffffffffffff1673ffffffffffffffffffffffffffffffffffffffff163373ffffffffffffffffffffffffffffffffffffffff161415610182576040517f08c379a000000000000000000000000000000000000000000000000000000000815260040161017990610788565b60405180910390fd5b60046040518060a00160405280600060028111156101a3576101a261051b565b5b8152602001600060038111156101bc576101bb61051b565b5b81526020018381526020018481526020013373ffffffffffffffffffffffffffffffffffffffff16815250908060018154018082558091505060019003906000526020600020906004020160009091909190915060008201518160000160006101000a81548160ff0219169083600281111561023b5761023a61051b565b5b021790555060208201518160000160016101000a81548160ff0219169083600381111561026b5761026a61051b565b5b0217905550604082015181600101556060820151816002015560808201518160030160006101000a81548173ffffffffffffffffffffffffffffffffffffffff021916908373ffffffffffffffffffffffffffffffffffffffff16021790555050505050565b600033905090565b60606004805480602002602001604051908101604052809291908181526020016000905b8282101561040f57838290600052602060002090600402016040518060a00160405290816000820160009054906101000a900460ff1660028111156103455761034461051b565b5b60028111156103575761035661051b565b5b81526020016000820160019054906101000a900460ff1660038111156103805761037f61051b565b5b60038111156103925761039161051b565b5b815260200160018201548152602001600282015481526020016003820160009054906101000a900473ffffffffffffffffffffffffffffffffffffffff1673ffffffffffffffffffffffffffffffffffffffff1673ffffffffffffffffffffffffffffffffffffffff1681525050815260200190600101906102fd565b50505050905090565b600073ffffffffffffffffffffffffffffffffffffffff82169050919050565b600061044382610418565b9050919050565b61045381610438565b82525050565b600060208201905061046e600083018461044a565b92915050565b600080fd5b6000819050919050565b61048c81610479565b811461049757600080fd5b50565b6000813590506104a981610483565b92915050565b600080604083850312156104c6576104c5610474565b5b60006104d48582860161049a565b92505060206104e58582860161049a565b9150509250929050565b600081519050919050565b600082825260208201905092915050565b6000819050602082019050919050565b7f4e487b7100000000000000000000000000000000000000000000000000000000600052602160045260246000fd5b6003811061055b5761055a61051b565b5b50565b600081905061056c8261054a565b919050565b600061057c8261055e565b9050919050565b61058c81610571565b82525050565b600481106105a3576105a261051b565b5b50565b60008190506105b482610592565b919050565b60006105c4826105a6565b9050919050565b6105d4816105b9565b82525050565b6105e381610479565b82525050565b6105f281610438565b82525050565b60a08201600082015161060e6000850182610583565b50602082015161062160208501826105cb565b50604082015161063460408501826105da565b50606082015161064760608501826105da565b50608082015161065a60808501826105e9565b50505050565b600061066c83836105f8565b60a08301905092915050565b6000602082019050919050565b6000610690826104ef565b61069a81856104fa565b93506106a58361050b565b8060005b838110156106d65781516106bd8882610660565b97506106c883610678565b9250506001810190506106a9565b5085935050505092915050565b600060208201905081810360008301526106fd8184610685565b905092915050565b600082825260208201905092915050565b7f4f6e6c79207468652062757965722063616e2063616c6c20746869732066756e60008201527f6374696f6e000000000000000000000000000000000000000000000000000000602082015250565b6000610772602583610705565b915061077d82610716565b604082019050919050565b600060208201905081810360008301526107a181610765565b905091905056fea2646970667358221220ae9e4a12494fdef1f7e2459f3e2432f00919051db0616a7fd8a772821d5ceb0464736f6c634300080c0033",
  "immutableReferences": {},
  "source": "// SPDX-License-Identifier: MIT\npragma solidity >=0.8.0 <=0.9.0;\n\n// contract for healthcare marketplace\ncontract Ethology {\n    // structs for representing the data\n    struct product {\n        uint256 id;\n        uint256 price;\n    }\n\n    enum buyerPhase {\n        RAISE_PO,\n        WITHDRAW_PO,\n        FREEZE_PO\n    }\n\n    enum supplierPhase {\n        INIT,\n        CANCELLED,\n        PROCURED,\n        DELIVERED\n    }\n\n    struct purchaseOrder {\n        buyerPhase buyerStatus;\n        supplierPhase supplierStatus;\n        uint256 price;\n        uint256 id;\n        address buyer;\n    }\n\n    // map representing the products the client has ordered\n    mapping(address => purchaseOrder[]) poList;\n\n    // owner of the contract\n    address supplier;\n    address buyer;\n    uint256 buyerCount;\n    purchaseOrder[] buyerPO;\n\n    // address[] addresses;\n    // buyerPhase[] buyerPhases;\n\n    // constructor\n    constructor() {\n        supplier = msg.sender;\n        buyer = msg.sender;\n    }\n\n    //  modifiers for restricted functions\n    modifier onlySupplier() {\n        require(\n            msg.sender == supplier,\n            \"Only the supplier can call this function\"\n        );\n        _;\n    }\n\n    modifier onlyBuyer() {\n        require(\n            msg.sender != supplier,\n            \"Only the buyer can call this function\"\n        );\n        _;\n    }\n\n    // utility functions\n    function getSupplier() public view returns (address) {\n        return supplier;\n    }\n\n    function getBuyer() public view returns (address) {\n        return msg.sender;\n    }\n\n    function getPOList() public view returns (purchaseOrder[] memory) {\n        return buyerPO;\n    }\n\n    // ideally how it should be\n    function raisePo(uint256 id, uint256 price) public onlyBuyer {\n        buyerPO.push(\n            purchaseOrder({\n                buyerStatus: buyerPhase.RAISE_PO,\n                supplierStatus: supplierPhase.INIT,\n                price: price,\n                id: id,\n                buyer: msg.sender\n            })\n        );\n    }\n}\n",
  "sourcePath": "/home/shreyans/UB/Blockchain/projects/ethology-app/src/blockchain/contracts/Ethology.sol",
  "compiler": {
    "name": "solc",
    "version": "0.8.12+commit.f00d7308.Emscripten.clang"
  },
  "schemaVersion": "3.4.6",
  "updatedAt": "2022-04-17T07:38:22.622Z",
  "networkType": "ethereum",
  "devdoc": {
    "kind": "dev",
    "methods": {},
    "version": 1
  },
  "userdoc": {
    "kind": "user",
    "methods": {},
    "version": 1
  }
}